{
  "abi": [
    {
      "inputs": [
        {
          "internalType": "uint256",
          "name": "_amount",
          "type": "uint256"
        },
        {
          "internalType": "uint256",
          "name": "_interest",
          "type": "uint256"
        },
        {
          "internalType": "uint256",
          "name": "_duration",
          "type": "uint256"
        },
        {
          "internalType": "address payable",
          "name": "_borrower",
          "type": "address"
        },
        {
          "internalType": "address payable",
          "name": "_tokenFarm",
          "type": "address"
        }
      ],
      "stateMutability": "nonpayable",
      "type": "constructor"
    },
    {
      "inputs": [],
      "name": "amount",
      "outputs": [
        {
          "internalType": "uint256",
          "name": "",
          "type": "uint256"
        }
      ],
      "stateMutability": "view",
      "type": "function"
    },
    {
      "inputs": [],
      "name": "borrower",
      "outputs": [
        {
          "internalType": "address payable",
          "name": "",
          "type": "address"
        }
      ],
      "stateMutability": "view",
      "type": "function"
    },
    {
      "inputs": [],
      "name": "duration",
      "outputs": [
        {
          "internalType": "uint256",
          "name": "",
          "type": "uint256"
        }
      ],
      "stateMutability": "view",
      "type": "function"
    },
    {
      "inputs": [],
      "name": "end",
      "outputs": [
        {
          "internalType": "uint256",
          "name": "",
          "type": "uint256"
        }
      ],
      "stateMutability": "view",
      "type": "function"
    },
    {
      "inputs": [],
      "name": "fund",
      "outputs": [],
      "stateMutability": "payable",
      "type": "function"
    },
    {
      "inputs": [],
      "name": "interest",
      "outputs": [
        {
          "internalType": "uint256",
          "name": "",
          "type": "uint256"
        }
      ],
      "stateMutability": "view",
      "type": "function"
    },
    {
      "inputs": [],
      "name": "lender",
      "outputs": [
        {
          "internalType": "address payable",
          "name": "",
          "type": "address"
        }
      ],
      "stateMutability": "view",
      "type": "function"
    },
    {
      "inputs": [],
      "name": "reimburse",
      "outputs": [],
      "stateMutability": "payable",
      "type": "function"
    },
    {
      "inputs": [],
      "name": "state",
      "outputs": [
        {
          "internalType": "enum StateMachine.State",
          "name": "",
          "type": "uint8"
        }
      ],
      "stateMutability": "view",
      "type": "function"
    },
    {
      "inputs": [],
      "name": "tokenFarm",
      "outputs": [
        {
          "internalType": "address payable",
          "name": "",
          "type": "address"
        }
      ],
      "stateMutability": "view",
      "type": "function"
    }
  ],
  "bytecode": "60806040526000805460ff1916905534801561001a57600080fd5b506040516108d33803806108d3833981016040819052610039916100a6565b60018590556002849055600483905561005283426100f6565b600355600580546001600160a01b039384166001600160a01b031991821617909155600780549290931691161790555061011d915050565b80516001600160a01b03811681146100a157600080fd5b919050565b600080600080600060a086880312156100be57600080fd5b8551945060208601519350604086015192506100dc6060870161008a565b91506100ea6080870161008a565b90509295509295909350565b8082018082111561011757634e487b7160e01b600052601160045260246000fd5b92915050565b6107a78061012c6000396000f3fe6080604052600436106100915760003560e01c8063bcead63e11610059578063bcead63e14610137578063c19d93fb14610157578063c392f7661461017e578063d3927c1514610194578063efbe1c1c1461019c57600080fd5b80630fb5a6b4146100965780633db3aef7146100bf5780637df1f1b9146100f7578063aa8c217c14610117578063b60d42881461012d575b600080fd5b3480156100a257600080fd5b506100ac60045481565b6040519081526020015b60405180910390f35b3480156100cb57600080fd5b506007546100df906001600160a01b031681565b6040516001600160a01b0390911681526020016100b6565b34801561010357600080fd5b506005546100df906001600160a01b031681565b34801561012357600080fd5b506100ac60015481565b6101356101b2565b005b34801561014357600080fd5b506006546100df906001600160a01b031681565b34801561016357600080fd5b506000546101719060ff1681565b6040516100b69190610722565b34801561018a57600080fd5b506100ac60025481565b61013561030a565b3480156101a857600080fd5b506100ac60035481565b6007546001600160a01b031633146102025760405162461bcd60e51b815260206004820152600e60248201526d4f6e6c7920546f6b656e4661726d60901b60448201526064015b60405180910390fd5b6006546001600160a01b0316331461025c5760405162461bcd60e51b815260206004820152601e60248201527f4f6e6c79206c656e6465722063616e2066756e6420746865206c6f616e2e000060448201526064016101f9565b60015447146102c15760405162461bcd60e51b815260206004820152602b60248201527f46756e64696e67206d757374206d6174636820746865206c6f616e20616d6f7560448201526a373a1032bc30b1ba363c9760a91b60648201526084016101f9565b6102cb6001610494565b6005546001546040516001600160a01b039092169181156108fc0291906000818181858888f19350505050158015610307573d6000803e3d6000fd5b50565b6005546001600160a01b031633146103545760405162461bcd60e51b815260206004820152600d60248201526c27b7363c903137b93937bbb2b960991b60448201526064016101f9565b6005546001600160a01b031633146103bc5760405162461bcd60e51b815260206004820152602560248201527f4f6e6c7920626f72726f7765722063616e207265696d627572736520746865206044820152643637b0b71760d91b60648201526084016101f9565b6002546001546103cc919061074a565b34146104405760405162461bcd60e51b815260206004820152603760248201527f5265696d62757273656d656e74206d757374206d6174636820746865206c6f6160448201527f6e20616d6f756e7420706c757320696e7465726573742e00000000000000000060648201526084016101f9565b61044a6002610494565b6007546002546001546001600160a01b03909216916108fc9161046c9161074a565b6040518115909202916000818181858888f19350505050158015610307573d6000803e3d6000fd5b60008160028111156104a8576104a861070c565b036104f55760405162461bcd60e51b815260206004820152601f60248201527f43616e6e6f742072657665727420746f2050454e44494e472073746174652e0060448201526064016101f9565b60005460ff16600281111561050c5761050c61070c565b81600281111561051e5761051e61070c565b036105775760405162461bcd60e51b8152602060048201526024808201527f43616e6e6f74207472616e736974696f6e20746f207468652073616d6520737460448201526330ba329760e11b60648201526084016101f9565b600181600281111561058b5761058b61070c565b03610621576000805460ff1660028111156105a8576105a861070c565b146106035760405162461bcd60e51b815260206004820152602560248201527f43616e206f6e6c792061637469766174652066726f6d2050454e44494e4720736044820152643a30ba329760d91b60648201526084016101f9565b6000805460ff1916600117905560045461061d904261074a565b6003555b60028160028111156106355761063561070c565b0361030757600160005460ff1660028111156106535761065361070c565b146106aa5760405162461bcd60e51b815260206004820152602160248201527f43616e206f6e6c7920636c6f73652066726f6d204143544956452073746174656044820152601760f91b60648201526084016101f9565b6003544210156106fc5760405162461bcd60e51b815260206004820152601c60248201527f4c6f616e207465726d20686173206e6f7420656e646564207965742e0000000060448201526064016101f9565b506000805460ff19166002179055565b634e487b7160e01b600052602160045260246000fd5b602081016003831061074457634e487b7160e01b600052602160045260246000fd5b91905290565b8082018082111561076b57634e487b7160e01b600052601160045260246000fd5b9291505056fea26469706673582212201f2d6042533cae84b44542d5dcf596d957066956a484437888812e1898225a5864736f6c63430008100033",
  "bytecodeSha1": "c4f1e70c66e32307f02003d6e0bd6467964692fa",
  "compiler": {
    "evm_version": "istanbul",
    "optimizer": {
      "enabled": true,
      "runs": 200
    },
    "version": "0.8.16+commit.07a7930e"
  },
  "contractName": "StateMachine",
  "language": "Solidity",
  "natspec": {
    "kind": "dev",
    "methods": {},
    "version": 1
  },
  "opcodes": "PUSH1 0x80 PUSH1 0x40 MSTORE PUSH1 0x4 CALLDATASIZE LT PUSH2 0x91 JUMPI PUSH1 0x0 CALLDATALOAD PUSH1 0xE0 SHR DUP1 PUSH4 0xBCEAD63E GT PUSH2 0x59 JUMPI DUP1 PUSH4 0xBCEAD63E EQ PUSH2 0x137 JUMPI DUP1 PUSH4 0xC19D93FB EQ PUSH2 0x157 JUMPI DUP1 PUSH4 0xC392F766 EQ PUSH2 0x17E JUMPI DUP1 PUSH4 0xD3927C15 EQ PUSH2 0x194 JUMPI DUP1 PUSH4 0xEFBE1C1C EQ PUSH2 0x19C JUMPI PUSH1 0x0 DUP1 REVERT JUMPDEST DUP1 PUSH4 0xFB5A6B4 EQ PUSH2 0x96 JUMPI DUP1 PUSH4 0x3DB3AEF7 EQ PUSH2 0xBF JUMPI DUP1 PUSH4 0x7DF1F1B9 EQ PUSH2 0xF7 JUMPI DUP1 PUSH4 0xAA8C217C EQ PUSH2 0x117 JUMPI DUP1 PUSH4 0xB60D4288 EQ PUSH2 0x12D JUMPI JUMPDEST PUSH1 0x0 DUP1 REVERT JUMPDEST CALLVALUE DUP1 ISZERO PUSH2 0xA2 JUMPI PUSH1 0x0 DUP1 REVERT JUMPDEST POP PUSH2 0xAC PUSH1 0x4 SLOAD DUP2 JUMP JUMPDEST PUSH1 0x40 MLOAD SWAP1 DUP2 MSTORE PUSH1 0x20 ADD JUMPDEST PUSH1 0x40 MLOAD DUP1 SWAP2 SUB SWAP1 RETURN JUMPDEST CALLVALUE DUP1 ISZERO PUSH2 0xCB JUMPI PUSH1 0x0 DUP1 REVERT JUMPDEST POP PUSH1 0x7 SLOAD PUSH2 0xDF SWAP1 PUSH1 0x1 PUSH1 0x1 PUSH1 0xA0 SHL SUB AND DUP2 JUMP JUMPDEST PUSH1 0x40 MLOAD PUSH1 0x1 PUSH1 0x1 PUSH1 0xA0 SHL SUB SWAP1 SWAP2 AND DUP2 MSTORE PUSH1 0x20 ADD PUSH2 0xB6 JUMP JUMPDEST CALLVALUE DUP1 ISZERO PUSH2 0x103 JUMPI PUSH1 0x0 DUP1 REVERT JUMPDEST POP PUSH1 0x5 SLOAD PUSH2 0xDF SWAP1 PUSH1 0x1 PUSH1 0x1 PUSH1 0xA0 SHL SUB AND DUP2 JUMP JUMPDEST CALLVALUE DUP1 ISZERO PUSH2 0x123 JUMPI PUSH1 0x0 DUP1 REVERT JUMPDEST POP PUSH2 0xAC PUSH1 0x1 SLOAD DUP2 JUMP JUMPDEST PUSH2 0x135 PUSH2 0x1B2 JUMP JUMPDEST STOP JUMPDEST CALLVALUE DUP1 ISZERO PUSH2 0x143 JUMPI PUSH1 0x0 DUP1 REVERT JUMPDEST POP PUSH1 0x6 SLOAD PUSH2 0xDF SWAP1 PUSH1 0x1 PUSH1 0x1 PUSH1 0xA0 SHL SUB AND DUP2 JUMP JUMPDEST CALLVALUE DUP1 ISZERO PUSH2 0x163 JUMPI PUSH1 0x0 DUP1 REVERT JUMPDEST POP PUSH1 0x0 SLOAD PUSH2 0x171 SWAP1 PUSH1 0xFF AND DUP2 JUMP JUMPDEST PUSH1 0x40 MLOAD PUSH2 0xB6 SWAP2 SWAP1 PUSH2 0x722 JUMP JUMPDEST CALLVALUE DUP1 ISZERO PUSH2 0x18A JUMPI PUSH1 0x0 DUP1 REVERT JUMPDEST POP PUSH2 0xAC PUSH1 0x2 SLOAD DUP2 JUMP JUMPDEST PUSH2 0x135 PUSH2 0x30A JUMP JUMPDEST CALLVALUE DUP1 ISZERO PUSH2 0x1A8 JUMPI PUSH1 0x0 DUP1 REVERT JUMPDEST POP PUSH2 0xAC PUSH1 0x3 SLOAD DUP2 JUMP JUMPDEST PUSH1 0x7 SLOAD PUSH1 0x1 PUSH1 0x1 PUSH1 0xA0 SHL SUB AND CALLER EQ PUSH2 0x202 JUMPI PUSH1 0x40 MLOAD PUSH3 0x461BCD PUSH1 0xE5 SHL DUP2 MSTORE PUSH1 0x20 PUSH1 0x4 DUP3 ADD MSTORE PUSH1 0xE PUSH1 0x24 DUP3 ADD MSTORE PUSH14 0x4F6E6C7920546F6B656E4661726D PUSH1 0x90 SHL PUSH1 0x44 DUP3 ADD MSTORE PUSH1 0x64 ADD JUMPDEST PUSH1 0x40 MLOAD DUP1 SWAP2 SUB SWAP1 REVERT JUMPDEST PUSH1 0x6 SLOAD PUSH1 0x1 PUSH1 0x1 PUSH1 0xA0 SHL SUB AND CALLER EQ PUSH2 0x25C JUMPI PUSH1 0x40 MLOAD PUSH3 0x461BCD PUSH1 0xE5 SHL DUP2 MSTORE PUSH1 0x20 PUSH1 0x4 DUP3 ADD MSTORE PUSH1 0x1E PUSH1 0x24 DUP3 ADD MSTORE PUSH32 0x4F6E6C79206C656E6465722063616E2066756E6420746865206C6F616E2E0000 PUSH1 0x44 DUP3 ADD MSTORE PUSH1 0x64 ADD PUSH2 0x1F9 JUMP JUMPDEST PUSH1 0x1 SLOAD SELFBALANCE EQ PUSH2 0x2C1 JUMPI PUSH1 0x40 MLOAD PUSH3 0x461BCD PUSH1 0xE5 SHL DUP2 MSTORE PUSH1 0x20 PUSH1 0x4 DUP3 ADD MSTORE PUSH1 0x2B PUSH1 0x24 DUP3 ADD MSTORE PUSH32 0x46756E64696E67206D757374206D6174636820746865206C6F616E20616D6F75 PUSH1 0x44 DUP3 ADD MSTORE PUSH11 0x373A1032BC30B1BA363C97 PUSH1 0xA9 SHL PUSH1 0x64 DUP3 ADD MSTORE PUSH1 0x84 ADD PUSH2 0x1F9 JUMP JUMPDEST PUSH2 0x2CB PUSH1 0x1 PUSH2 0x494 JUMP JUMPDEST PUSH1 0x5 SLOAD PUSH1 0x1 SLOAD PUSH1 0x40 MLOAD PUSH1 0x1 PUSH1 0x1 PUSH1 0xA0 SHL SUB SWAP1 SWAP3 AND SWAP2 DUP2 ISZERO PUSH2 0x8FC MUL SWAP2 SWAP1 PUSH1 0x0 DUP2 DUP2 DUP2 DUP6 DUP9 DUP9 CALL SWAP4 POP POP POP POP ISZERO DUP1 ISZERO PUSH2 0x307 JUMPI RETURNDATASIZE PUSH1 0x0 DUP1 RETURNDATACOPY RETURNDATASIZE PUSH1 0x0 REVERT JUMPDEST POP JUMP JUMPDEST PUSH1 0x5 SLOAD PUSH1 0x1 PUSH1 0x1 PUSH1 0xA0 SHL SUB AND CALLER EQ PUSH2 0x354 JUMPI PUSH1 0x40 MLOAD PUSH3 0x461BCD PUSH1 0xE5 SHL DUP2 MSTORE PUSH1 0x20 PUSH1 0x4 DUP3 ADD MSTORE PUSH1 0xD PUSH1 0x24 DUP3 ADD MSTORE PUSH13 0x27B7363C903137B93937BBB2B9 PUSH1 0x99 SHL PUSH1 0x44 DUP3 ADD MSTORE PUSH1 0x64 ADD PUSH2 0x1F9 JUMP JUMPDEST PUSH1 0x5 SLOAD PUSH1 0x1 PUSH1 0x1 PUSH1 0xA0 SHL SUB AND CALLER EQ PUSH2 0x3BC JUMPI PUSH1 0x40 MLOAD PUSH3 0x461BCD PUSH1 0xE5 SHL DUP2 MSTORE PUSH1 0x20 PUSH1 0x4 DUP3 ADD MSTORE PUSH1 0x25 PUSH1 0x24 DUP3 ADD MSTORE PUSH32 0x4F6E6C7920626F72726F7765722063616E207265696D62757273652074686520 PUSH1 0x44 DUP3 ADD MSTORE PUSH5 0x3637B0B717 PUSH1 0xD9 SHL PUSH1 0x64 DUP3 ADD MSTORE PUSH1 0x84 ADD PUSH2 0x1F9 JUMP JUMPDEST PUSH1 0x2 SLOAD PUSH1 0x1 SLOAD PUSH2 0x3CC SWAP2 SWAP1 PUSH2 0x74A JUMP JUMPDEST CALLVALUE EQ PUSH2 0x440 JUMPI PUSH1 0x40 MLOAD PUSH3 0x461BCD PUSH1 0xE5 SHL DUP2 MSTORE PUSH1 0x20 PUSH1 0x4 DUP3 ADD MSTORE PUSH1 0x37 PUSH1 0x24 DUP3 ADD MSTORE PUSH32 0x5265696D62757273656D656E74206D757374206D6174636820746865206C6F61 PUSH1 0x44 DUP3 ADD MSTORE PUSH32 0x6E20616D6F756E7420706C757320696E7465726573742E000000000000000000 PUSH1 0x64 DUP3 ADD MSTORE PUSH1 0x84 ADD PUSH2 0x1F9 JUMP JUMPDEST PUSH2 0x44A PUSH1 0x2 PUSH2 0x494 JUMP JUMPDEST PUSH1 0x7 SLOAD PUSH1 0x2 SLOAD PUSH1 0x1 SLOAD PUSH1 0x1 PUSH1 0x1 PUSH1 0xA0 SHL SUB SWAP1 SWAP3 AND SWAP2 PUSH2 0x8FC SWAP2 PUSH2 0x46C SWAP2 PUSH2 0x74A JUMP JUMPDEST PUSH1 0x40 MLOAD DUP2 ISZERO SWAP1 SWAP3 MUL SWAP2 PUSH1 0x0 DUP2 DUP2 DUP2 DUP6 DUP9 DUP9 CALL SWAP4 POP POP POP POP ISZERO DUP1 ISZERO PUSH2 0x307 JUMPI RETURNDATASIZE PUSH1 0x0 DUP1 RETURNDATACOPY RETURNDATASIZE PUSH1 0x0 REVERT JUMPDEST PUSH1 0x0 DUP2 PUSH1 0x2 DUP2 GT ISZERO PUSH2 0x4A8 JUMPI PUSH2 0x4A8 PUSH2 0x70C JUMP JUMPDEST SUB PUSH2 0x4F5 JUMPI PUSH1 0x40 MLOAD PUSH3 0x461BCD PUSH1 0xE5 SHL DUP2 MSTORE PUSH1 0x20 PUSH1 0x4 DUP3 ADD MSTORE PUSH1 0x1F PUSH1 0x24 DUP3 ADD MSTORE PUSH32 0x43616E6E6F742072657665727420746F2050454E44494E472073746174652E00 PUSH1 0x44 DUP3 ADD MSTORE PUSH1 0x64 ADD PUSH2 0x1F9 JUMP JUMPDEST PUSH1 0x0 SLOAD PUSH1 0xFF AND PUSH1 0x2 DUP2 GT ISZERO PUSH2 0x50C JUMPI PUSH2 0x50C PUSH2 0x70C JUMP JUMPDEST DUP2 PUSH1 0x2 DUP2 GT ISZERO PUSH2 0x51E JUMPI PUSH2 0x51E PUSH2 0x70C JUMP JUMPDEST SUB PUSH2 0x577 JUMPI PUSH1 0x40 MLOAD PUSH3 0x461BCD PUSH1 0xE5 SHL DUP2 MSTORE PUSH1 0x20 PUSH1 0x4 DUP3 ADD MSTORE PUSH1 0x24 DUP1 DUP3 ADD MSTORE PUSH32 0x43616E6E6F74207472616E736974696F6E20746F207468652073616D65207374 PUSH1 0x44 DUP3 ADD MSTORE PUSH4 0x30BA3297 PUSH1 0xE1 SHL PUSH1 0x64 DUP3 ADD MSTORE PUSH1 0x84 ADD PUSH2 0x1F9 JUMP JUMPDEST PUSH1 0x1 DUP2 PUSH1 0x2 DUP2 GT ISZERO PUSH2 0x58B JUMPI PUSH2 0x58B PUSH2 0x70C JUMP JUMPDEST SUB PUSH2 0x621 JUMPI PUSH1 0x0 DUP1 SLOAD PUSH1 0xFF AND PUSH1 0x2 DUP2 GT ISZERO PUSH2 0x5A8 JUMPI PUSH2 0x5A8 PUSH2 0x70C JUMP JUMPDEST EQ PUSH2 0x603 JUMPI PUSH1 0x40 MLOAD PUSH3 0x461BCD PUSH1 0xE5 SHL DUP2 MSTORE PUSH1 0x20 PUSH1 0x4 DUP3 ADD MSTORE PUSH1 0x25 PUSH1 0x24 DUP3 ADD MSTORE PUSH32 0x43616E206F6E6C792061637469766174652066726F6D2050454E44494E472073 PUSH1 0x44 DUP3 ADD MSTORE PUSH5 0x3A30BA3297 PUSH1 0xD9 SHL PUSH1 0x64 DUP3 ADD MSTORE PUSH1 0x84 ADD PUSH2 0x1F9 JUMP JUMPDEST PUSH1 0x0 DUP1 SLOAD PUSH1 0xFF NOT AND PUSH1 0x1 OR SWAP1 SSTORE PUSH1 0x4 SLOAD PUSH2 0x61D SWAP1 TIMESTAMP PUSH2 0x74A JUMP JUMPDEST PUSH1 0x3 SSTORE JUMPDEST PUSH1 0x2 DUP2 PUSH1 0x2 DUP2 GT ISZERO PUSH2 0x635 JUMPI PUSH2 0x635 PUSH2 0x70C JUMP JUMPDEST SUB PUSH2 0x307 JUMPI PUSH1 0x1 PUSH1 0x0 SLOAD PUSH1 0xFF AND PUSH1 0x2 DUP2 GT ISZERO PUSH2 0x653 JUMPI PUSH2 0x653 PUSH2 0x70C JUMP JUMPDEST EQ PUSH2 0x6AA JUMPI PUSH1 0x40 MLOAD PUSH3 0x461BCD PUSH1 0xE5 SHL DUP2 MSTORE PUSH1 0x20 PUSH1 0x4 DUP3 ADD MSTORE PUSH1 0x21 PUSH1 0x24 DUP3 ADD MSTORE PUSH32 0x43616E206F6E6C7920636C6F73652066726F6D20414354495645207374617465 PUSH1 0x44 DUP3 ADD MSTORE PUSH1 0x17 PUSH1 0xF9 SHL PUSH1 0x64 DUP3 ADD MSTORE PUSH1 0x84 ADD PUSH2 0x1F9 JUMP JUMPDEST PUSH1 0x3 SLOAD TIMESTAMP LT ISZERO PUSH2 0x6FC JUMPI PUSH1 0x40 MLOAD PUSH3 0x461BCD PUSH1 0xE5 SHL DUP2 MSTORE PUSH1 0x20 PUSH1 0x4 DUP3 ADD MSTORE PUSH1 0x1C PUSH1 0x24 DUP3 ADD MSTORE PUSH32 0x4C6F616E207465726D20686173206E6F7420656E646564207965742E00000000 PUSH1 0x44 DUP3 ADD MSTORE PUSH1 0x64 ADD PUSH2 0x1F9 JUMP JUMPDEST POP PUSH1 0x0 DUP1 SLOAD PUSH1 0xFF NOT AND PUSH1 0x2 OR SWAP1 SSTORE JUMP JUMPDEST PUSH4 0x4E487B71 PUSH1 0xE0 SHL PUSH1 0x0 MSTORE PUSH1 0x21 PUSH1 0x4 MSTORE PUSH1 0x24 PUSH1 0x0 REVERT JUMPDEST PUSH1 0x20 DUP2 ADD PUSH1 0x3 DUP4 LT PUSH2 0x744 JUMPI PUSH4 0x4E487B71 PUSH1 0xE0 SHL PUSH1 0x0 MSTORE PUSH1 0x21 PUSH1 0x4 MSTORE PUSH1 0x24 PUSH1 0x0 REVERT JUMPDEST SWAP2 SWAP1 MSTORE SWAP1 JUMP JUMPDEST DUP1 DUP3 ADD DUP1 DUP3 GT ISZERO PUSH2 0x76B JUMPI PUSH4 0x4E487B71 PUSH1 0xE0 SHL PUSH1 0x0 MSTORE PUSH1 0x11 PUSH1 0x4 MSTORE PUSH1 0x24 PUSH1 0x0 REVERT JUMPDEST SWAP3 SWAP2 POP POP JUMP INVALID LOG2 PUSH5 0x6970667358 0x22 SLT KECCAK256 0x1F 0x2D PUSH1 0x42 MSTORE8 EXTCODECOPY 0xAE DUP5 0xB4 GASLIMIT TIMESTAMP 0xD5 0xDC CREATE2 SWAP7 0xD9 JUMPI MOD PUSH10 0x56A484437888812E1898 0x22 GAS PC PUSH5 0x736F6C6343 STOP ADDMOD LT STOP CALLER ",
  "sha1": "d1ae037195b3c209aa53eb2798a5f51b3e7d2509",
  "source": "// SPDX-License-Identifier: MIT\npragma solidity ^0.8.7;\n\ncontract StateMachine {\n  enum State {\n    PENDING,\n    ACTIVE,\n    CLOSED\n  } // Define possible states\n\n  State public state = State.PENDING; // Initial state is PENDING\n  uint256 public amount; // Loan amount to be borrowed\n  uint256 public interest; // Interest amount to be paid by the borrower\n  uint256 public end; // Timestamp when the loan term ends\n  uint256 public duration; // Declare duration as a state variable\n  address payable public borrower; // Updated to address payable\n  address payable public lender; // Updated to address payable\n  address payable public tokenFarm; // 👈 TokenFarm = lender logique\n\n  constructor(\n    uint256 _amount,\n    uint256 _interest,\n    uint256 _duration,\n    address payable _borrower,\n    address payable _tokenFarm\n  ) {\n    amount = _amount; // Assign the amount to the state variable\n    interest = _interest; // Assign the interest to the state variable\n    duration = _duration; // Assign the duration to the state variable\n    end = block.timestamp + _duration; // Initialize the end time\n    borrower = _borrower; // Updated to address payable\n    tokenFarm = _tokenFarm;\n  }\n\n\n  // ===== FUND (appelé UNIQUEMENT par TokenFarm via LoanFactory)\n\n  function fund() external payable onlyTokenFarm {\n    require(msg.sender == lender, \"Only lender can fund the loan.\");\n    require(\n      address(this).balance == amount,\n      \"Funding must match the loan amount exactly.\"\n    );\n    _transitionTo(State.ACTIVE);\n    borrower.transfer(amount);\n  } // Transfer the loan amount to the borrower\n\n\n  // ===== REPAY (borrower rembourse, fonds retournent à TokenFarm)\n\n  function reimburse() external payable onlyBorrower {\n    require(msg.sender == borrower, \"Only borrower can reimburse the loan.\");\n    require(\n      msg.value == amount + interest,\n      \"Reimbursement must match the loan amount plus interest.\"\n    );\n    _transitionTo(State.CLOSED); // Transition to CLOSED state\n    tokenFarm.transfer(amount + interest); // Transfer the reimbursement to the lender\n  }\n\n  function _transitionTo(State to) internal {\n    require(to != State.PENDING, \"Cannot revert to PENDING state.\"); // Prevent reverting to PENDING state\n    require(to != state, \"Cannot transition to the same state.\"); // Prevent transitioning to the same state\n\n    if (to == State.ACTIVE) {\n      require(state == State.PENDING, \"Can only activate from PENDING state.\");\n      state = State.ACTIVE;\n      end = block.timestamp + duration; // Use the duration state variable\n    } // Transition to ACTIVE state\n\n    if (to == State.CLOSED) {\n      require(state == State.ACTIVE, \"Can only close from ACTIVE state.\");\n      require(block.timestamp >= end, \"Loan term has not ended yet.\");\n      state = State.CLOSED;\n    } // Transition to CLOSED state\n  }\n\n  modifier onlyBorrower() {\n    require(msg.sender == borrower, \"Only borrower\");\n    _;\n  }\n\n  modifier onlyTokenFarm() {\n    require(msg.sender == tokenFarm, \"Only TokenFarm\");\n    _;\n  }\n\n}\n",
  "sourcePath": "contracts/StateMachine.sol",
  "type": "contract"
}