{
  "abi": [
    {
      "inputs": [
        {
          "internalType": "address",
          "name": "_goldenTokenAddress",
          "type": "address"
        }
      ],
      "stateMutability": "nonpayable",
      "type": "constructor"
    },
    {
      "anonymous": false,
      "inputs": [
        {
          "indexed": true,
          "internalType": "bytes32",
          "name": "id",
          "type": "bytes32"
        }
      ],
      "name": "ChainlinkCancelled",
      "type": "event"
    },
    {
      "anonymous": false,
      "inputs": [
        {
          "indexed": true,
          "internalType": "bytes32",
          "name": "id",
          "type": "bytes32"
        }
      ],
      "name": "ChainlinkFulfilled",
      "type": "event"
    },
    {
      "anonymous": false,
      "inputs": [
        {
          "indexed": true,
          "internalType": "bytes32",
          "name": "id",
          "type": "bytes32"
        }
      ],
      "name": "ChainlinkRequested",
      "type": "event"
    },
    {
      "anonymous": false,
      "inputs": [
        {
          "indexed": true,
          "internalType": "address",
          "name": "previousOwner",
          "type": "address"
        },
        {
          "indexed": true,
          "internalType": "address",
          "name": "newOwner",
          "type": "address"
        }
      ],
      "name": "OwnershipTransferred",
      "type": "event"
    },
    {
      "inputs": [
        {
          "internalType": "address",
          "name": "token",
          "type": "address"
        }
      ],
      "name": "addAllowedTokens",
      "outputs": [],
      "stateMutability": "nonpayable",
      "type": "function"
    },
    {
      "inputs": [
        {
          "internalType": "uint256",
          "name": "",
          "type": "uint256"
        }
      ],
      "name": "allowedTokens",
      "outputs": [
        {
          "internalType": "address",
          "name": "",
          "type": "address"
        }
      ],
      "stateMutability": "view",
      "type": "function"
    },
    {
      "inputs": [
        {
          "internalType": "address",
          "name": "token",
          "type": "address"
        }
      ],
      "name": "getTokenEthPrice",
      "outputs": [
        {
          "internalType": "uint256",
          "name": "",
          "type": "uint256"
        },
        {
          "internalType": "uint8",
          "name": "",
          "type": "uint8"
        }
      ],
      "stateMutability": "view",
      "type": "function"
    },
    {
      "inputs": [
        {
          "internalType": "address",
          "name": "user",
          "type": "address"
        },
        {
          "internalType": "address",
          "name": "token",
          "type": "address"
        }
      ],
      "name": "getUserTokenStakingBalanceEthValue",
      "outputs": [
        {
          "internalType": "uint256",
          "name": "",
          "type": "uint256"
        }
      ],
      "stateMutability": "view",
      "type": "function"
    },
    {
      "inputs": [
        {
          "internalType": "address",
          "name": "user",
          "type": "address"
        }
      ],
      "name": "getUserTotalValue",
      "outputs": [
        {
          "internalType": "uint256",
          "name": "",
          "type": "uint256"
        }
      ],
      "stateMutability": "view",
      "type": "function"
    },
    {
      "inputs": [],
      "name": "goldenToken",
      "outputs": [
        {
          "internalType": "contract IERC20",
          "name": "",
          "type": "address"
        }
      ],
      "stateMutability": "view",
      "type": "function"
    },
    {
      "inputs": [],
      "name": "issueTokens",
      "outputs": [],
      "stateMutability": "nonpayable",
      "type": "function"
    },
    {
      "inputs": [],
      "name": "name",
      "outputs": [
        {
          "internalType": "string",
          "name": "",
          "type": "string"
        }
      ],
      "stateMutability": "view",
      "type": "function"
    },
    {
      "inputs": [],
      "name": "owner",
      "outputs": [
        {
          "internalType": "address",
          "name": "",
          "type": "address"
        }
      ],
      "stateMutability": "view",
      "type": "function"
    },
    {
      "inputs": [],
      "name": "renounceOwnership",
      "outputs": [],
      "stateMutability": "nonpayable",
      "type": "function"
    },
    {
      "inputs": [
        {
          "internalType": "address",
          "name": "token",
          "type": "address"
        },
        {
          "internalType": "address",
          "name": "priceFeed",
          "type": "address"
        }
      ],
      "name": "setPriceFeedContract",
      "outputs": [],
      "stateMutability": "nonpayable",
      "type": "function"
    },
    {
      "inputs": [
        {
          "internalType": "uint256",
          "name": "_amount",
          "type": "uint256"
        },
        {
          "internalType": "address",
          "name": "token",
          "type": "address"
        }
      ],
      "name": "stakeTokens",
      "outputs": [],
      "stateMutability": "nonpayable",
      "type": "function"
    },
    {
      "inputs": [
        {
          "internalType": "uint256",
          "name": "",
          "type": "uint256"
        }
      ],
      "name": "stakers",
      "outputs": [
        {
          "internalType": "address",
          "name": "",
          "type": "address"
        }
      ],
      "stateMutability": "view",
      "type": "function"
    },
    {
      "inputs": [
        {
          "internalType": "address",
          "name": "",
          "type": "address"
        },
        {
          "internalType": "address",
          "name": "",
          "type": "address"
        }
      ],
      "name": "stakingBalance",
      "outputs": [
        {
          "internalType": "uint256",
          "name": "",
          "type": "uint256"
        }
      ],
      "stateMutability": "view",
      "type": "function"
    },
    {
      "inputs": [
        {
          "internalType": "address",
          "name": "token",
          "type": "address"
        }
      ],
      "name": "tokenIsAllowed",
      "outputs": [
        {
          "internalType": "bool",
          "name": "",
          "type": "bool"
        }
      ],
      "stateMutability": "view",
      "type": "function"
    },
    {
      "inputs": [
        {
          "internalType": "address",
          "name": "",
          "type": "address"
        }
      ],
      "name": "tokenPriceFeedMapping",
      "outputs": [
        {
          "internalType": "address",
          "name": "",
          "type": "address"
        }
      ],
      "stateMutability": "view",
      "type": "function"
    },
    {
      "inputs": [
        {
          "internalType": "address",
          "name": "newOwner",
          "type": "address"
        }
      ],
      "name": "transferOwnership",
      "outputs": [],
      "stateMutability": "nonpayable",
      "type": "function"
    },
    {
      "inputs": [
        {
          "internalType": "address",
          "name": "",
          "type": "address"
        }
      ],
      "name": "uniqueTokensStaked",
      "outputs": [
        {
          "internalType": "uint256",
          "name": "",
          "type": "uint256"
        }
      ],
      "stateMutability": "view",
      "type": "function"
    },
    {
      "inputs": [
        {
          "internalType": "address",
          "name": "token",
          "type": "address"
        }
      ],
      "name": "unstakeTokens",
      "outputs": [],
      "stateMutability": "nonpayable",
      "type": "function"
    }
  ],
  "bytecode": "600160045560c06040526011608090815270476f6c64656e20546f6b656e204661726d60781b60a05260079062000037908262000190565b503480156200004557600080fd5b50604051620014593803806200145983398101604081905262000068916200025c565b620000733362000099565b600880546001600160a01b0319166001600160a01b03929092169190911790556200028e565b600680546001600160a01b038381166001600160a01b0319831681179093556040519116919082907f8be0079c531659141344cd1fd0a4f28419497f9722a3daafe3b4186f6b6457e090600090a35050565b634e487b7160e01b600052604160045260246000fd5b600181811c908216806200011657607f821691505b6020821081036200013757634e487b7160e01b600052602260045260246000fd5b50919050565b601f8211156200018b57600081815260208120601f850160051c81016020861015620001665750805b601f850160051c820191505b81811015620001875782815560010162000172565b5050505b505050565b81516001600160401b03811115620001ac57620001ac620000eb565b620001c481620001bd845462000101565b846200013d565b602080601f831160018114620001fc5760008415620001e35750858301515b600019600386901b1c1916600185901b17855562000187565b600085815260208120601f198616915b828110156200022d578886015182559484019460019091019084016200020c565b50858210156200024c5787850151600019600388901b60f8161c191681555b5050505050600190811b01905550565b6000602082840312156200026f57600080fd5b81516001600160a01b03811681146200028757600080fd5b9392505050565b6111bb806200029e6000396000f3fe608060405234801561001057600080fd5b50600436106101215760003560e01c8063877dd39d116100ad578063b83e023411610071578063b83e023414610279578063dd5b846714610299578063df00018d146102bc578063f2fde38b146102e6578063fd5e6dd1146102f957600080fd5b8063877dd39d1461021c5780638da5cb5b1461022f5780639109754014610240578063af3f5e2214610253578063b22f269f1461026657600080fd5b806329161a00116100f457806329161a00146101ad5780632d1ad8b8146101e65780635e5f2e26146101f957806360ab58521461020c578063715018a61461021457600080fd5b806306fdde03146101265780630bea440d14610144578063171e44ea1461015957806327927b3e1461016c575b600080fd5b61012e61030c565b60405161013b9190610dba565b60405180910390f35b610157610152366004610e24565b61039a565b005b610157610167366004610e50565b610565565b61019561017a366004610e50565b600c602052600090815260409020546001600160a01b031681565b6040516001600160a01b03909116815260200161013b565b6101d86101bb366004610e72565b600a60209081526000928352604080842090915290825290205481565b60405190815260200161013b565b6101576101f4366004610e50565b6105e1565b610195610207366004610e9c565b61081e565b610157610848565b610157610947565b61015761022a366004610e72565b61097d565b6006546001600160a01b0316610195565b6101d861024e366004610e72565b6109d5565b6101d8610261366004610e50565b610a5f565b600854610195906001600160a01b031681565b6101d8610287366004610e50565b600b6020526000908152604090205481565b6102ac6102a7366004610e50565b610ae2565b604051901515815260200161013b565b6102cf6102ca366004610e50565b610b4b565b6040805192835260ff90911660208301520161013b565b6101576102f4366004610e50565b610c55565b610195610307366004610e9c565b610ced565b6007805461031990610eb5565b80601f016020809104026020016040519081016040528092919081815260200182805461034590610eb5565b80156103925780601f1061036757610100808354040283529160200191610392565b820191906000526020600020905b81548152906001019060200180831161037557829003601f168201915b505050505081565b600082116103e45760405162461bcd60e51b81526020600482015260126024820152710616d6f756e742063616e6e6f7420626520360741b60448201526064015b60405180910390fd5b6103ed81610ae2565b6104395760405162461bcd60e51b815260206004820152601d60248201527f546f6b656e2063757272656e746c792069736e277420616c6c6f77656400000060448201526064016103db565b6104433382610cfd565b6040516323b872dd60e01b8152336004820152306024820152604481018390526001600160a01b038216906323b872dd906064016020604051808303816000875af1158015610496573d6000803e3d6000fd5b505050506040513d601f19601f820116820180604052508101906104ba9190610eef565b506001600160a01b0381166000908152600a602090815260408083203384529091529020546104ea908390610f27565b6001600160a01b0382166000908152600a60209081526040808320338452825280832093909355600b9052205460010361056157600980546001810182556000919091527f6e1540171b6c0c960b71a7020d9f60077f6af931a8bbf590da0223dacf75c7af0180546001600160a01b031916331790555b5050565b6006546001600160a01b0316331461058f5760405162461bcd60e51b81526004016103db90610f3a565b600d80546001810182556000919091527fd7b6990105719101dabeb77144f2a3385c8033acd3af97e9423a695e81ad1eb50180546001600160a01b0319166001600160a01b0392909216919091179055565b6001600160a01b0381166000908152600a60209081526040808320338452909152902054806106525760405162461bcd60e51b815260206004820152601b60248201527f7374616b696e672062616c616e63652063616e6e6f742062652030000000000060448201526064016103db565b60405163a9059cbb60e01b8152336004820152602481018290526001600160a01b0383169063a9059cbb906044016020604051808303816000875af115801561069f573d6000803e3d6000fd5b505050506040513d601f19601f820116820180604052508101906106c39190610eef565b506001600160a01b0382166000908152600a602090815260408083203384528252808320839055600b9091529020546106fe90600190610f6f565b336000908152600b60205260408120829055036105615760005b60095481101561081957336001600160a01b03166009828154811061073f5761073f610f82565b6000918252602090912001546001600160a01b031603610807576009805461076990600190610f6f565b8154811061077957610779610f82565b600091825260209091200154600980546001600160a01b0390921691839081106107a5576107a5610f82565b9060005260206000200160006101000a8154816001600160a01b0302191690836001600160a01b0316021790555060098054806107e4576107e4610f98565b600082815260209020810160001990810180546001600160a01b03191690550190555b8061081181610fae565b915050610718565b505050565b600d818154811061082e57600080fd5b6000918252602090912001546001600160a01b0316905081565b6006546001600160a01b031633146108725760405162461bcd60e51b81526004016103db90610f3a565b60005b6009548110156109445760006009828154811061089457610894610f82565b6000918252602090912001546008546001600160a01b0391821692501663a9059cbb826108c081610a5f565b6040516001600160e01b031960e085901b1681526001600160a01b03909216600483015260248201526044016020604051808303816000875af115801561090b573d6000803e3d6000fd5b505050506040513d601f19601f8201168201806040525081019061092f9190610eef565b5050808061093c90610fae565b915050610875565b50565b6006546001600160a01b031633146109715760405162461bcd60e51b81526004016103db90610f3a565b61097b6000610d68565b565b6006546001600160a01b031633146109a75760405162461bcd60e51b81526004016103db90610f3a565b6001600160a01b039182166000908152600c6020526040902080546001600160a01b03191691909216179055565b6001600160a01b0382166000908152600b60205260408120546109fa57506000610a59565b600080610a0684610b4b565b9092509050610a1960ff8216600a6110ab565b6001600160a01b038086166000908152600a60209081526040808320938a1683529290522054610a4a9084906110b7565b610a5491906110d6565b925050505b92915050565b6001600160a01b0381166000908152600b6020526040812054819015610a595760005b600d54811015610adb57610abd84600d8381548110610aa357610aa3610f82565b6000918252602090912001546001600160a01b03166109d5565b610ac79083610f27565b915080610ad381610fae565b915050610a82565b5092915050565b6000805b600d54811015610b4257826001600160a01b0316600d8281548110610b0d57610b0d610f82565b6000918252602090912001546001600160a01b031603610b305750600192915050565b80610b3a81610fae565b915050610ae6565b50600092915050565b6001600160a01b038082166000908152600c6020526040808220548151633fabe5a360e21b8152915192938493911691829184918291829182918291879163feaf968c9160048082019260a0929091908290030181865afa158015610bb4573d6000803e3d6000fd5b505050506040513d601f19601f82011682018060405250810190610bd89190611112565b9450945094509450945083866001600160a01b031663313ce5676040518163ffffffff1660e01b8152600401602060405180830381865afa158015610c21573d6000803e3d6000fd5b505050506040513d601f19601f82011682018060405250810190610c459190611162565b9850985050505050505050915091565b6006546001600160a01b03163314610c7f5760405162461bcd60e51b81526004016103db90610f3a565b6001600160a01b038116610ce45760405162461bcd60e51b815260206004820152602660248201527f4f776e61626c653a206e6577206f776e657220697320746865207a65726f206160448201526564647265737360d01b60648201526084016103db565b61094481610d68565b6009818154811061082e57600080fd5b6001600160a01b038082166000908152600a6020908152604080832093861683529290522054610561576001600160a01b0382166000908152600b6020526040902054610d4b906001610f27565b6001600160a01b0383166000908152600b60205260409020555050565b600680546001600160a01b038381166001600160a01b0319831681179093556040519116919082907f8be0079c531659141344cd1fd0a4f28419497f9722a3daafe3b4186f6b6457e090600090a35050565b600060208083528351808285015260005b81811015610de757858101830151858201604001528201610dcb565b506000604082860101526040601f19601f8301168501019250505092915050565b80356001600160a01b0381168114610e1f57600080fd5b919050565b60008060408385031215610e3757600080fd5b82359150610e4760208401610e08565b90509250929050565b600060208284031215610e6257600080fd5b610e6b82610e08565b9392505050565b60008060408385031215610e8557600080fd5b610e8e83610e08565b9150610e4760208401610e08565b600060208284031215610eae57600080fd5b5035919050565b600181811c90821680610ec957607f821691505b602082108103610ee957634e487b7160e01b600052602260045260246000fd5b50919050565b600060208284031215610f0157600080fd5b81518015158114610e6b57600080fd5b634e487b7160e01b600052601160045260246000fd5b80820180821115610a5957610a59610f11565b6020808252818101527f4f776e61626c653a2063616c6c6572206973206e6f7420746865206f776e6572604082015260600190565b81810381811115610a5957610a59610f11565b634e487b7160e01b600052603260045260246000fd5b634e487b7160e01b600052603160045260246000fd5b600060018201610fc057610fc0610f11565b5060010190565b600181815b80851115611002578160001904821115610fe857610fe8610f11565b80851615610ff557918102915b93841c9390800290610fcc565b509250929050565b60008261101957506001610a59565b8161102657506000610a59565b816001811461103c576002811461104657611062565b6001915050610a59565b60ff84111561105757611057610f11565b50506001821b610a59565b5060208310610133831016604e8410600b8410161715611085575081810a610a59565b61108f8383610fc7565b80600019048211156110a3576110a3610f11565b029392505050565b6000610e6b838361100a565b60008160001904831182151516156110d1576110d1610f11565b500290565b6000826110f357634e487b7160e01b600052601260045260246000fd5b500490565b805169ffffffffffffffffffff81168114610e1f57600080fd5b600080600080600060a0868803121561112a57600080fd5b611133866110f8565b9450602086015193506040860151925060608601519150611156608087016110f8565b90509295509295909350565b60006020828403121561117457600080fd5b815160ff81168114610e6b57600080fdfea264697066735822122085609801fc28e53dcf9ac7ce4660808a365b1b975d113d41bc8490feca00712264736f6c63430008100033",
  "bytecodeSha1": "8e948bcad654eed8e96938c4e111012d8c96028c",
  "compiler": {
    "evm_version": "istanbul",
    "optimizer": {
      "enabled": true,
      "runs": 200
    },
    "version": "0.8.16+commit.07a7930e"
  },
  "contractName": "TokenFarm",
  "language": "Solidity",
  "natspec": {
    "kind": "dev",
    "methods": {
      "owner()": {
        "details": "Returns the address of the current owner."
      },
      "renounceOwnership()": {
        "details": "Leaves the contract without owner. It will not be possible to call `onlyOwner` functions anymore. Can only be called by the current owner. NOTE: Renouncing ownership will leave the contract without an owner, thereby removing any functionality that is only available to the owner."
      },
      "transferOwnership(address)": {
        "details": "Transfers ownership of the contract to a new account (`newOwner`). Can only be called by the current owner."
      }
    },
    "version": 1
  },
  "opcodes": "PUSH1 0x80 PUSH1 0x40 MSTORE CALLVALUE DUP1 ISZERO PUSH2 0x10 JUMPI PUSH1 0x0 DUP1 REVERT JUMPDEST POP PUSH1 0x4 CALLDATASIZE LT PUSH2 0x121 JUMPI PUSH1 0x0 CALLDATALOAD PUSH1 0xE0 SHR DUP1 PUSH4 0x877DD39D GT PUSH2 0xAD JUMPI DUP1 PUSH4 0xB83E0234 GT PUSH2 0x71 JUMPI DUP1 PUSH4 0xB83E0234 EQ PUSH2 0x279 JUMPI DUP1 PUSH4 0xDD5B8467 EQ PUSH2 0x299 JUMPI DUP1 PUSH4 0xDF00018D EQ PUSH2 0x2BC JUMPI DUP1 PUSH4 0xF2FDE38B EQ PUSH2 0x2E6 JUMPI DUP1 PUSH4 0xFD5E6DD1 EQ PUSH2 0x2F9 JUMPI PUSH1 0x0 DUP1 REVERT JUMPDEST DUP1 PUSH4 0x877DD39D EQ PUSH2 0x21C JUMPI DUP1 PUSH4 0x8DA5CB5B EQ PUSH2 0x22F JUMPI DUP1 PUSH4 0x91097540 EQ PUSH2 0x240 JUMPI DUP1 PUSH4 0xAF3F5E22 EQ PUSH2 0x253 JUMPI DUP1 PUSH4 0xB22F269F EQ PUSH2 0x266 JUMPI PUSH1 0x0 DUP1 REVERT JUMPDEST DUP1 PUSH4 0x29161A00 GT PUSH2 0xF4 JUMPI DUP1 PUSH4 0x29161A00 EQ PUSH2 0x1AD JUMPI DUP1 PUSH4 0x2D1AD8B8 EQ PUSH2 0x1E6 JUMPI DUP1 PUSH4 0x5E5F2E26 EQ PUSH2 0x1F9 JUMPI DUP1 PUSH4 0x60AB5852 EQ PUSH2 0x20C JUMPI DUP1 PUSH4 0x715018A6 EQ PUSH2 0x214 JUMPI PUSH1 0x0 DUP1 REVERT JUMPDEST DUP1 PUSH4 0x6FDDE03 EQ PUSH2 0x126 JUMPI DUP1 PUSH4 0xBEA440D EQ PUSH2 0x144 JUMPI DUP1 PUSH4 0x171E44EA EQ PUSH2 0x159 JUMPI DUP1 PUSH4 0x27927B3E EQ PUSH2 0x16C JUMPI JUMPDEST PUSH1 0x0 DUP1 REVERT JUMPDEST PUSH2 0x12E PUSH2 0x30C JUMP JUMPDEST PUSH1 0x40 MLOAD PUSH2 0x13B SWAP2 SWAP1 PUSH2 0xDBA JUMP JUMPDEST PUSH1 0x40 MLOAD DUP1 SWAP2 SUB SWAP1 RETURN JUMPDEST PUSH2 0x157 PUSH2 0x152 CALLDATASIZE PUSH1 0x4 PUSH2 0xE24 JUMP JUMPDEST PUSH2 0x39A JUMP JUMPDEST STOP JUMPDEST PUSH2 0x157 PUSH2 0x167 CALLDATASIZE PUSH1 0x4 PUSH2 0xE50 JUMP JUMPDEST PUSH2 0x565 JUMP JUMPDEST PUSH2 0x195 PUSH2 0x17A CALLDATASIZE PUSH1 0x4 PUSH2 0xE50 JUMP JUMPDEST PUSH1 0xC PUSH1 0x20 MSTORE PUSH1 0x0 SWAP1 DUP2 MSTORE PUSH1 0x40 SWAP1 KECCAK256 SLOAD PUSH1 0x1 PUSH1 0x1 PUSH1 0xA0 SHL SUB AND DUP2 JUMP JUMPDEST PUSH1 0x40 MLOAD PUSH1 0x1 PUSH1 0x1 PUSH1 0xA0 SHL SUB SWAP1 SWAP2 AND DUP2 MSTORE PUSH1 0x20 ADD PUSH2 0x13B JUMP JUMPDEST PUSH2 0x1D8 PUSH2 0x1BB CALLDATASIZE PUSH1 0x4 PUSH2 0xE72 JUMP JUMPDEST PUSH1 0xA PUSH1 0x20 SWAP1 DUP2 MSTORE PUSH1 0x0 SWAP3 DUP4 MSTORE PUSH1 0x40 DUP1 DUP5 KECCAK256 SWAP1 SWAP2 MSTORE SWAP1 DUP3 MSTORE SWAP1 KECCAK256 SLOAD DUP2 JUMP JUMPDEST PUSH1 0x40 MLOAD SWAP1 DUP2 MSTORE PUSH1 0x20 ADD PUSH2 0x13B JUMP JUMPDEST PUSH2 0x157 PUSH2 0x1F4 CALLDATASIZE PUSH1 0x4 PUSH2 0xE50 JUMP JUMPDEST PUSH2 0x5E1 JUMP JUMPDEST PUSH2 0x195 PUSH2 0x207 CALLDATASIZE PUSH1 0x4 PUSH2 0xE9C JUMP JUMPDEST PUSH2 0x81E JUMP JUMPDEST PUSH2 0x157 PUSH2 0x848 JUMP JUMPDEST PUSH2 0x157 PUSH2 0x947 JUMP JUMPDEST PUSH2 0x157 PUSH2 0x22A CALLDATASIZE PUSH1 0x4 PUSH2 0xE72 JUMP JUMPDEST PUSH2 0x97D JUMP JUMPDEST PUSH1 0x6 SLOAD PUSH1 0x1 PUSH1 0x1 PUSH1 0xA0 SHL SUB AND PUSH2 0x195 JUMP JUMPDEST PUSH2 0x1D8 PUSH2 0x24E CALLDATASIZE PUSH1 0x4 PUSH2 0xE72 JUMP JUMPDEST PUSH2 0x9D5 JUMP JUMPDEST PUSH2 0x1D8 PUSH2 0x261 CALLDATASIZE PUSH1 0x4 PUSH2 0xE50 JUMP JUMPDEST PUSH2 0xA5F JUMP JUMPDEST PUSH1 0x8 SLOAD PUSH2 0x195 SWAP1 PUSH1 0x1 PUSH1 0x1 PUSH1 0xA0 SHL SUB AND DUP2 JUMP JUMPDEST PUSH2 0x1D8 PUSH2 0x287 CALLDATASIZE PUSH1 0x4 PUSH2 0xE50 JUMP JUMPDEST PUSH1 0xB PUSH1 0x20 MSTORE PUSH1 0x0 SWAP1 DUP2 MSTORE PUSH1 0x40 SWAP1 KECCAK256 SLOAD DUP2 JUMP JUMPDEST PUSH2 0x2AC PUSH2 0x2A7 CALLDATASIZE PUSH1 0x4 PUSH2 0xE50 JUMP JUMPDEST PUSH2 0xAE2 JUMP JUMPDEST PUSH1 0x40 MLOAD SWAP1 ISZERO ISZERO DUP2 MSTORE PUSH1 0x20 ADD PUSH2 0x13B JUMP JUMPDEST PUSH2 0x2CF PUSH2 0x2CA CALLDATASIZE PUSH1 0x4 PUSH2 0xE50 JUMP JUMPDEST PUSH2 0xB4B JUMP JUMPDEST PUSH1 0x40 DUP1 MLOAD SWAP3 DUP4 MSTORE PUSH1 0xFF SWAP1 SWAP2 AND PUSH1 0x20 DUP4 ADD MSTORE ADD PUSH2 0x13B JUMP JUMPDEST PUSH2 0x157 PUSH2 0x2F4 CALLDATASIZE PUSH1 0x4 PUSH2 0xE50 JUMP JUMPDEST PUSH2 0xC55 JUMP JUMPDEST PUSH2 0x195 PUSH2 0x307 CALLDATASIZE PUSH1 0x4 PUSH2 0xE9C JUMP JUMPDEST PUSH2 0xCED JUMP JUMPDEST PUSH1 0x7 DUP1 SLOAD PUSH2 0x319 SWAP1 PUSH2 0xEB5 JUMP JUMPDEST DUP1 PUSH1 0x1F ADD PUSH1 0x20 DUP1 SWAP2 DIV MUL PUSH1 0x20 ADD PUSH1 0x40 MLOAD SWAP1 DUP2 ADD PUSH1 0x40 MSTORE DUP1 SWAP3 SWAP2 SWAP1 DUP2 DUP2 MSTORE PUSH1 0x20 ADD DUP3 DUP1 SLOAD PUSH2 0x345 SWAP1 PUSH2 0xEB5 JUMP JUMPDEST DUP1 ISZERO PUSH2 0x392 JUMPI DUP1 PUSH1 0x1F LT PUSH2 0x367 JUMPI PUSH2 0x100 DUP1 DUP4 SLOAD DIV MUL DUP4 MSTORE SWAP2 PUSH1 0x20 ADD SWAP2 PUSH2 0x392 JUMP JUMPDEST DUP3 ADD SWAP2 SWAP1 PUSH1 0x0 MSTORE PUSH1 0x20 PUSH1 0x0 KECCAK256 SWAP1 JUMPDEST DUP2 SLOAD DUP2 MSTORE SWAP1 PUSH1 0x1 ADD SWAP1 PUSH1 0x20 ADD DUP1 DUP4 GT PUSH2 0x375 JUMPI DUP3 SWAP1 SUB PUSH1 0x1F AND DUP3 ADD SWAP2 JUMPDEST POP POP POP POP POP DUP2 JUMP JUMPDEST PUSH1 0x0 DUP3 GT PUSH2 0x3E4 JUMPI PUSH1 0x40 MLOAD PUSH3 0x461BCD PUSH1 0xE5 SHL DUP2 MSTORE PUSH1 0x20 PUSH1 0x4 DUP3 ADD MSTORE PUSH1 0x12 PUSH1 0x24 DUP3 ADD MSTORE PUSH18 0x616D6F756E742063616E6E6F74206265203 PUSH1 0x74 SHL PUSH1 0x44 DUP3 ADD MSTORE PUSH1 0x64 ADD JUMPDEST PUSH1 0x40 MLOAD DUP1 SWAP2 SUB SWAP1 REVERT JUMPDEST PUSH2 0x3ED DUP2 PUSH2 0xAE2 JUMP JUMPDEST PUSH2 0x439 JUMPI PUSH1 0x40 MLOAD PUSH3 0x461BCD PUSH1 0xE5 SHL DUP2 MSTORE PUSH1 0x20 PUSH1 0x4 DUP3 ADD MSTORE PUSH1 0x1D PUSH1 0x24 DUP3 ADD MSTORE PUSH32 0x546F6B656E2063757272656E746C792069736E277420616C6C6F776564000000 PUSH1 0x44 DUP3 ADD MSTORE PUSH1 0x64 ADD PUSH2 0x3DB JUMP JUMPDEST PUSH2 0x443 CALLER DUP3 PUSH2 0xCFD JUMP JUMPDEST PUSH1 0x40 MLOAD PUSH4 0x23B872DD PUSH1 0xE0 SHL DUP2 MSTORE CALLER PUSH1 0x4 DUP3 ADD MSTORE ADDRESS PUSH1 0x24 DUP3 ADD MSTORE PUSH1 0x44 DUP2 ADD DUP4 SWAP1 MSTORE PUSH1 0x1 PUSH1 0x1 PUSH1 0xA0 SHL SUB DUP3 AND SWAP1 PUSH4 0x23B872DD SWAP1 PUSH1 0x64 ADD PUSH1 0x20 PUSH1 0x40 MLOAD DUP1 DUP4 SUB DUP2 PUSH1 0x0 DUP8 GAS CALL ISZERO DUP1 ISZERO PUSH2 0x496 JUMPI RETURNDATASIZE PUSH1 0x0 DUP1 RETURNDATACOPY RETURNDATASIZE PUSH1 0x0 REVERT JUMPDEST POP POP POP POP PUSH1 0x40 MLOAD RETURNDATASIZE PUSH1 0x1F NOT PUSH1 0x1F DUP3 ADD AND DUP3 ADD DUP1 PUSH1 0x40 MSTORE POP DUP2 ADD SWAP1 PUSH2 0x4BA SWAP2 SWAP1 PUSH2 0xEEF JUMP JUMPDEST POP PUSH1 0x1 PUSH1 0x1 PUSH1 0xA0 SHL SUB DUP2 AND PUSH1 0x0 SWAP1 DUP2 MSTORE PUSH1 0xA PUSH1 0x20 SWAP1 DUP2 MSTORE PUSH1 0x40 DUP1 DUP4 KECCAK256 CALLER DUP5 MSTORE SWAP1 SWAP2 MSTORE SWAP1 KECCAK256 SLOAD PUSH2 0x4EA SWAP1 DUP4 SWAP1 PUSH2 0xF27 JUMP JUMPDEST PUSH1 0x1 PUSH1 0x1 PUSH1 0xA0 SHL SUB DUP3 AND PUSH1 0x0 SWAP1 DUP2 MSTORE PUSH1 0xA PUSH1 0x20 SWAP1 DUP2 MSTORE PUSH1 0x40 DUP1 DUP4 KECCAK256 CALLER DUP5 MSTORE DUP3 MSTORE DUP1 DUP4 KECCAK256 SWAP4 SWAP1 SWAP4 SSTORE PUSH1 0xB SWAP1 MSTORE KECCAK256 SLOAD PUSH1 0x1 SUB PUSH2 0x561 JUMPI PUSH1 0x9 DUP1 SLOAD PUSH1 0x1 DUP2 ADD DUP3 SSTORE PUSH1 0x0 SWAP2 SWAP1 SWAP2 MSTORE PUSH32 0x6E1540171B6C0C960B71A7020D9F60077F6AF931A8BBF590DA0223DACF75C7AF ADD DUP1 SLOAD PUSH1 0x1 PUSH1 0x1 PUSH1 0xA0 SHL SUB NOT AND CALLER OR SWAP1 SSTORE JUMPDEST POP POP JUMP JUMPDEST PUSH1 0x6 SLOAD PUSH1 0x1 PUSH1 0x1 PUSH1 0xA0 SHL SUB AND CALLER EQ PUSH2 0x58F JUMPI PUSH1 0x40 MLOAD PUSH3 0x461BCD PUSH1 0xE5 SHL DUP2 MSTORE PUSH1 0x4 ADD PUSH2 0x3DB SWAP1 PUSH2 0xF3A JUMP JUMPDEST PUSH1 0xD DUP1 SLOAD PUSH1 0x1 DUP2 ADD DUP3 SSTORE PUSH1 0x0 SWAP2 SWAP1 SWAP2 MSTORE PUSH32 0xD7B6990105719101DABEB77144F2A3385C8033ACD3AF97E9423A695E81AD1EB5 ADD DUP1 SLOAD PUSH1 0x1 PUSH1 0x1 PUSH1 0xA0 SHL SUB NOT AND PUSH1 0x1 PUSH1 0x1 PUSH1 0xA0 SHL SUB SWAP3 SWAP1 SWAP3 AND SWAP2 SWAP1 SWAP2 OR SWAP1 SSTORE JUMP JUMPDEST PUSH1 0x1 PUSH1 0x1 PUSH1 0xA0 SHL SUB DUP2 AND PUSH1 0x0 SWAP1 DUP2 MSTORE PUSH1 0xA PUSH1 0x20 SWAP1 DUP2 MSTORE PUSH1 0x40 DUP1 DUP4 KECCAK256 CALLER DUP5 MSTORE SWAP1 SWAP2 MSTORE SWAP1 KECCAK256 SLOAD DUP1 PUSH2 0x652 JUMPI PUSH1 0x40 MLOAD PUSH3 0x461BCD PUSH1 0xE5 SHL DUP2 MSTORE PUSH1 0x20 PUSH1 0x4 DUP3 ADD MSTORE PUSH1 0x1B PUSH1 0x24 DUP3 ADD MSTORE PUSH32 0x7374616B696E672062616C616E63652063616E6E6F7420626520300000000000 PUSH1 0x44 DUP3 ADD MSTORE PUSH1 0x64 ADD PUSH2 0x3DB JUMP JUMPDEST PUSH1 0x40 MLOAD PUSH4 0xA9059CBB PUSH1 0xE0 SHL DUP2 MSTORE CALLER PUSH1 0x4 DUP3 ADD MSTORE PUSH1 0x24 DUP2 ADD DUP3 SWAP1 MSTORE PUSH1 0x1 PUSH1 0x1 PUSH1 0xA0 SHL SUB DUP4 AND SWAP1 PUSH4 0xA9059CBB SWAP1 PUSH1 0x44 ADD PUSH1 0x20 PUSH1 0x40 MLOAD DUP1 DUP4 SUB DUP2 PUSH1 0x0 DUP8 GAS CALL ISZERO DUP1 ISZERO PUSH2 0x69F JUMPI RETURNDATASIZE PUSH1 0x0 DUP1 RETURNDATACOPY RETURNDATASIZE PUSH1 0x0 REVERT JUMPDEST POP POP POP POP PUSH1 0x40 MLOAD RETURNDATASIZE PUSH1 0x1F NOT PUSH1 0x1F DUP3 ADD AND DUP3 ADD DUP1 PUSH1 0x40 MSTORE POP DUP2 ADD SWAP1 PUSH2 0x6C3 SWAP2 SWAP1 PUSH2 0xEEF JUMP JUMPDEST POP PUSH1 0x1 PUSH1 0x1 PUSH1 0xA0 SHL SUB DUP3 AND PUSH1 0x0 SWAP1 DUP2 MSTORE PUSH1 0xA PUSH1 0x20 SWAP1 DUP2 MSTORE PUSH1 0x40 DUP1 DUP4 KECCAK256 CALLER DUP5 MSTORE DUP3 MSTORE DUP1 DUP4 KECCAK256 DUP4 SWAP1 SSTORE PUSH1 0xB SWAP1 SWAP2 MSTORE SWAP1 KECCAK256 SLOAD PUSH2 0x6FE SWAP1 PUSH1 0x1 SWAP1 PUSH2 0xF6F JUMP JUMPDEST CALLER PUSH1 0x0 SWAP1 DUP2 MSTORE PUSH1 0xB PUSH1 0x20 MSTORE PUSH1 0x40 DUP2 KECCAK256 DUP3 SWAP1 SSTORE SUB PUSH2 0x561 JUMPI PUSH1 0x0 JUMPDEST PUSH1 0x9 SLOAD DUP2 LT ISZERO PUSH2 0x819 JUMPI CALLER PUSH1 0x1 PUSH1 0x1 PUSH1 0xA0 SHL SUB AND PUSH1 0x9 DUP3 DUP2 SLOAD DUP2 LT PUSH2 0x73F JUMPI PUSH2 0x73F PUSH2 0xF82 JUMP JUMPDEST PUSH1 0x0 SWAP2 DUP3 MSTORE PUSH1 0x20 SWAP1 SWAP2 KECCAK256 ADD SLOAD PUSH1 0x1 PUSH1 0x1 PUSH1 0xA0 SHL SUB AND SUB PUSH2 0x807 JUMPI PUSH1 0x9 DUP1 SLOAD PUSH2 0x769 SWAP1 PUSH1 0x1 SWAP1 PUSH2 0xF6F JUMP JUMPDEST DUP2 SLOAD DUP2 LT PUSH2 0x779 JUMPI PUSH2 0x779 PUSH2 0xF82 JUMP JUMPDEST PUSH1 0x0 SWAP2 DUP3 MSTORE PUSH1 0x20 SWAP1 SWAP2 KECCAK256 ADD SLOAD PUSH1 0x9 DUP1 SLOAD PUSH1 0x1 PUSH1 0x1 PUSH1 0xA0 SHL SUB SWAP1 SWAP3 AND SWAP2 DUP4 SWAP1 DUP2 LT PUSH2 0x7A5 JUMPI PUSH2 0x7A5 PUSH2 0xF82 JUMP JUMPDEST SWAP1 PUSH1 0x0 MSTORE PUSH1 0x20 PUSH1 0x0 KECCAK256 ADD PUSH1 0x0 PUSH2 0x100 EXP DUP2 SLOAD DUP2 PUSH1 0x1 PUSH1 0x1 PUSH1 0xA0 SHL SUB MUL NOT AND SWAP1 DUP4 PUSH1 0x1 PUSH1 0x1 PUSH1 0xA0 SHL SUB AND MUL OR SWAP1 SSTORE POP PUSH1 0x9 DUP1 SLOAD DUP1 PUSH2 0x7E4 JUMPI PUSH2 0x7E4 PUSH2 0xF98 JUMP JUMPDEST PUSH1 0x0 DUP3 DUP2 MSTORE PUSH1 0x20 SWAP1 KECCAK256 DUP2 ADD PUSH1 0x0 NOT SWAP1 DUP2 ADD DUP1 SLOAD PUSH1 0x1 PUSH1 0x1 PUSH1 0xA0 SHL SUB NOT AND SWAP1 SSTORE ADD SWAP1 SSTORE JUMPDEST DUP1 PUSH2 0x811 DUP2 PUSH2 0xFAE JUMP JUMPDEST SWAP2 POP POP PUSH2 0x718 JUMP JUMPDEST POP POP POP JUMP JUMPDEST PUSH1 0xD DUP2 DUP2 SLOAD DUP2 LT PUSH2 0x82E JUMPI PUSH1 0x0 DUP1 REVERT JUMPDEST PUSH1 0x0 SWAP2 DUP3 MSTORE PUSH1 0x20 SWAP1 SWAP2 KECCAK256 ADD SLOAD PUSH1 0x1 PUSH1 0x1 PUSH1 0xA0 SHL SUB AND SWAP1 POP DUP2 JUMP JUMPDEST PUSH1 0x6 SLOAD PUSH1 0x1 PUSH1 0x1 PUSH1 0xA0 SHL SUB AND CALLER EQ PUSH2 0x872 JUMPI PUSH1 0x40 MLOAD PUSH3 0x461BCD PUSH1 0xE5 SHL DUP2 MSTORE PUSH1 0x4 ADD PUSH2 0x3DB SWAP1 PUSH2 0xF3A JUMP JUMPDEST PUSH1 0x0 JUMPDEST PUSH1 0x9 SLOAD DUP2 LT ISZERO PUSH2 0x944 JUMPI PUSH1 0x0 PUSH1 0x9 DUP3 DUP2 SLOAD DUP2 LT PUSH2 0x894 JUMPI PUSH2 0x894 PUSH2 0xF82 JUMP JUMPDEST PUSH1 0x0 SWAP2 DUP3 MSTORE PUSH1 0x20 SWAP1 SWAP2 KECCAK256 ADD SLOAD PUSH1 0x8 SLOAD PUSH1 0x1 PUSH1 0x1 PUSH1 0xA0 SHL SUB SWAP2 DUP3 AND SWAP3 POP AND PUSH4 0xA9059CBB DUP3 PUSH2 0x8C0 DUP2 PUSH2 0xA5F JUMP JUMPDEST PUSH1 0x40 MLOAD PUSH1 0x1 PUSH1 0x1 PUSH1 0xE0 SHL SUB NOT PUSH1 0xE0 DUP6 SWAP1 SHL AND DUP2 MSTORE PUSH1 0x1 PUSH1 0x1 PUSH1 0xA0 SHL SUB SWAP1 SWAP3 AND PUSH1 0x4 DUP4 ADD MSTORE PUSH1 0x24 DUP3 ADD MSTORE PUSH1 0x44 ADD PUSH1 0x20 PUSH1 0x40 MLOAD DUP1 DUP4 SUB DUP2 PUSH1 0x0 DUP8 GAS CALL ISZERO DUP1 ISZERO PUSH2 0x90B JUMPI RETURNDATASIZE PUSH1 0x0 DUP1 RETURNDATACOPY RETURNDATASIZE PUSH1 0x0 REVERT JUMPDEST POP POP POP POP PUSH1 0x40 MLOAD RETURNDATASIZE PUSH1 0x1F NOT PUSH1 0x1F DUP3 ADD AND DUP3 ADD DUP1 PUSH1 0x40 MSTORE POP DUP2 ADD SWAP1 PUSH2 0x92F SWAP2 SWAP1 PUSH2 0xEEF JUMP JUMPDEST POP POP DUP1 DUP1 PUSH2 0x93C SWAP1 PUSH2 0xFAE JUMP JUMPDEST SWAP2 POP POP PUSH2 0x875 JUMP JUMPDEST POP JUMP JUMPDEST PUSH1 0x6 SLOAD PUSH1 0x1 PUSH1 0x1 PUSH1 0xA0 SHL SUB AND CALLER EQ PUSH2 0x971 JUMPI PUSH1 0x40 MLOAD PUSH3 0x461BCD PUSH1 0xE5 SHL DUP2 MSTORE PUSH1 0x4 ADD PUSH2 0x3DB SWAP1 PUSH2 0xF3A JUMP JUMPDEST PUSH2 0x97B PUSH1 0x0 PUSH2 0xD68 JUMP JUMPDEST JUMP JUMPDEST PUSH1 0x6 SLOAD PUSH1 0x1 PUSH1 0x1 PUSH1 0xA0 SHL SUB AND CALLER EQ PUSH2 0x9A7 JUMPI PUSH1 0x40 MLOAD PUSH3 0x461BCD PUSH1 0xE5 SHL DUP2 MSTORE PUSH1 0x4 ADD PUSH2 0x3DB SWAP1 PUSH2 0xF3A JUMP JUMPDEST PUSH1 0x1 PUSH1 0x1 PUSH1 0xA0 SHL SUB SWAP2 DUP3 AND PUSH1 0x0 SWAP1 DUP2 MSTORE PUSH1 0xC PUSH1 0x20 MSTORE PUSH1 0x40 SWAP1 KECCAK256 DUP1 SLOAD PUSH1 0x1 PUSH1 0x1 PUSH1 0xA0 SHL SUB NOT AND SWAP2 SWAP1 SWAP3 AND OR SWAP1 SSTORE JUMP JUMPDEST PUSH1 0x1 PUSH1 0x1 PUSH1 0xA0 SHL SUB DUP3 AND PUSH1 0x0 SWAP1 DUP2 MSTORE PUSH1 0xB PUSH1 0x20 MSTORE PUSH1 0x40 DUP2 KECCAK256 SLOAD PUSH2 0x9FA JUMPI POP PUSH1 0x0 PUSH2 0xA59 JUMP JUMPDEST PUSH1 0x0 DUP1 PUSH2 0xA06 DUP5 PUSH2 0xB4B JUMP JUMPDEST SWAP1 SWAP3 POP SWAP1 POP PUSH2 0xA19 PUSH1 0xFF DUP3 AND PUSH1 0xA PUSH2 0x10AB JUMP JUMPDEST PUSH1 0x1 PUSH1 0x1 PUSH1 0xA0 SHL SUB DUP1 DUP7 AND PUSH1 0x0 SWAP1 DUP2 MSTORE PUSH1 0xA PUSH1 0x20 SWAP1 DUP2 MSTORE PUSH1 0x40 DUP1 DUP4 KECCAK256 SWAP4 DUP11 AND DUP4 MSTORE SWAP3 SWAP1 MSTORE KECCAK256 SLOAD PUSH2 0xA4A SWAP1 DUP5 SWAP1 PUSH2 0x10B7 JUMP JUMPDEST PUSH2 0xA54 SWAP2 SWAP1 PUSH2 0x10D6 JUMP JUMPDEST SWAP3 POP POP POP JUMPDEST SWAP3 SWAP2 POP POP JUMP JUMPDEST PUSH1 0x1 PUSH1 0x1 PUSH1 0xA0 SHL SUB DUP2 AND PUSH1 0x0 SWAP1 DUP2 MSTORE PUSH1 0xB PUSH1 0x20 MSTORE PUSH1 0x40 DUP2 KECCAK256 SLOAD DUP2 SWAP1 ISZERO PUSH2 0xA59 JUMPI PUSH1 0x0 JUMPDEST PUSH1 0xD SLOAD DUP2 LT ISZERO PUSH2 0xADB JUMPI PUSH2 0xABD DUP5 PUSH1 0xD DUP4 DUP2 SLOAD DUP2 LT PUSH2 0xAA3 JUMPI PUSH2 0xAA3 PUSH2 0xF82 JUMP JUMPDEST PUSH1 0x0 SWAP2 DUP3 MSTORE PUSH1 0x20 SWAP1 SWAP2 KECCAK256 ADD SLOAD PUSH1 0x1 PUSH1 0x1 PUSH1 0xA0 SHL SUB AND PUSH2 0x9D5 JUMP JUMPDEST PUSH2 0xAC7 SWAP1 DUP4 PUSH2 0xF27 JUMP JUMPDEST SWAP2 POP DUP1 PUSH2 0xAD3 DUP2 PUSH2 0xFAE JUMP JUMPDEST SWAP2 POP POP PUSH2 0xA82 JUMP JUMPDEST POP SWAP3 SWAP2 POP POP JUMP JUMPDEST PUSH1 0x0 DUP1 JUMPDEST PUSH1 0xD SLOAD DUP2 LT ISZERO PUSH2 0xB42 JUMPI DUP3 PUSH1 0x1 PUSH1 0x1 PUSH1 0xA0 SHL SUB AND PUSH1 0xD DUP3 DUP2 SLOAD DUP2 LT PUSH2 0xB0D JUMPI PUSH2 0xB0D PUSH2 0xF82 JUMP JUMPDEST PUSH1 0x0 SWAP2 DUP3 MSTORE PUSH1 0x20 SWAP1 SWAP2 KECCAK256 ADD SLOAD PUSH1 0x1 PUSH1 0x1 PUSH1 0xA0 SHL SUB AND SUB PUSH2 0xB30 JUMPI POP PUSH1 0x1 SWAP3 SWAP2 POP POP JUMP JUMPDEST DUP1 PUSH2 0xB3A DUP2 PUSH2 0xFAE JUMP JUMPDEST SWAP2 POP POP PUSH2 0xAE6 JUMP JUMPDEST POP PUSH1 0x0 SWAP3 SWAP2 POP POP JUMP JUMPDEST PUSH1 0x1 PUSH1 0x1 PUSH1 0xA0 SHL SUB DUP1 DUP3 AND PUSH1 0x0 SWAP1 DUP2 MSTORE PUSH1 0xC PUSH1 0x20 MSTORE PUSH1 0x40 DUP1 DUP3 KECCAK256 SLOAD DUP2 MLOAD PUSH4 0x3FABE5A3 PUSH1 0xE2 SHL DUP2 MSTORE SWAP2 MLOAD SWAP3 SWAP4 DUP5 SWAP4 SWAP2 AND SWAP2 DUP3 SWAP2 DUP5 SWAP2 DUP3 SWAP2 DUP3 SWAP2 DUP3 SWAP2 DUP3 SWAP2 DUP8 SWAP2 PUSH4 0xFEAF968C SWAP2 PUSH1 0x4 DUP1 DUP3 ADD SWAP3 PUSH1 0xA0 SWAP3 SWAP1 SWAP2 SWAP1 DUP3 SWAP1 SUB ADD DUP2 DUP7 GAS STATICCALL ISZERO DUP1 ISZERO PUSH2 0xBB4 JUMPI RETURNDATASIZE PUSH1 0x0 DUP1 RETURNDATACOPY RETURNDATASIZE PUSH1 0x0 REVERT JUMPDEST POP POP POP POP PUSH1 0x40 MLOAD RETURNDATASIZE PUSH1 0x1F NOT PUSH1 0x1F DUP3 ADD AND DUP3 ADD DUP1 PUSH1 0x40 MSTORE POP DUP2 ADD SWAP1 PUSH2 0xBD8 SWAP2 SWAP1 PUSH2 0x1112 JUMP JUMPDEST SWAP5 POP SWAP5 POP SWAP5 POP SWAP5 POP SWAP5 POP DUP4 DUP7 PUSH1 0x1 PUSH1 0x1 PUSH1 0xA0 SHL SUB AND PUSH4 0x313CE567 PUSH1 0x40 MLOAD DUP2 PUSH4 0xFFFFFFFF AND PUSH1 0xE0 SHL DUP2 MSTORE PUSH1 0x4 ADD PUSH1 0x20 PUSH1 0x40 MLOAD DUP1 DUP4 SUB DUP2 DUP7 GAS STATICCALL ISZERO DUP1 ISZERO PUSH2 0xC21 JUMPI RETURNDATASIZE PUSH1 0x0 DUP1 RETURNDATACOPY RETURNDATASIZE PUSH1 0x0 REVERT JUMPDEST POP POP POP POP PUSH1 0x40 MLOAD RETURNDATASIZE PUSH1 0x1F NOT PUSH1 0x1F DUP3 ADD AND DUP3 ADD DUP1 PUSH1 0x40 MSTORE POP DUP2 ADD SWAP1 PUSH2 0xC45 SWAP2 SWAP1 PUSH2 0x1162 JUMP JUMPDEST SWAP9 POP SWAP9 POP POP POP POP POP POP POP POP SWAP2 POP SWAP2 JUMP JUMPDEST PUSH1 0x6 SLOAD PUSH1 0x1 PUSH1 0x1 PUSH1 0xA0 SHL SUB AND CALLER EQ PUSH2 0xC7F JUMPI PUSH1 0x40 MLOAD PUSH3 0x461BCD PUSH1 0xE5 SHL DUP2 MSTORE PUSH1 0x4 ADD PUSH2 0x3DB SWAP1 PUSH2 0xF3A JUMP JUMPDEST PUSH1 0x1 PUSH1 0x1 PUSH1 0xA0 SHL SUB DUP2 AND PUSH2 0xCE4 JUMPI PUSH1 0x40 MLOAD PUSH3 0x461BCD PUSH1 0xE5 SHL DUP2 MSTORE PUSH1 0x20 PUSH1 0x4 DUP3 ADD MSTORE PUSH1 0x26 PUSH1 0x24 DUP3 ADD MSTORE PUSH32 0x4F776E61626C653A206E6577206F776E657220697320746865207A65726F2061 PUSH1 0x44 DUP3 ADD MSTORE PUSH6 0x646472657373 PUSH1 0xD0 SHL PUSH1 0x64 DUP3 ADD MSTORE PUSH1 0x84 ADD PUSH2 0x3DB JUMP JUMPDEST PUSH2 0x944 DUP2 PUSH2 0xD68 JUMP JUMPDEST PUSH1 0x9 DUP2 DUP2 SLOAD DUP2 LT PUSH2 0x82E JUMPI PUSH1 0x0 DUP1 REVERT JUMPDEST PUSH1 0x1 PUSH1 0x1 PUSH1 0xA0 SHL SUB DUP1 DUP3 AND PUSH1 0x0 SWAP1 DUP2 MSTORE PUSH1 0xA PUSH1 0x20 SWAP1 DUP2 MSTORE PUSH1 0x40 DUP1 DUP4 KECCAK256 SWAP4 DUP7 AND DUP4 MSTORE SWAP3 SWAP1 MSTORE KECCAK256 SLOAD PUSH2 0x561 JUMPI PUSH1 0x1 PUSH1 0x1 PUSH1 0xA0 SHL SUB DUP3 AND PUSH1 0x0 SWAP1 DUP2 MSTORE PUSH1 0xB PUSH1 0x20 MSTORE PUSH1 0x40 SWAP1 KECCAK256 SLOAD PUSH2 0xD4B SWAP1 PUSH1 0x1 PUSH2 0xF27 JUMP JUMPDEST PUSH1 0x1 PUSH1 0x1 PUSH1 0xA0 SHL SUB DUP4 AND PUSH1 0x0 SWAP1 DUP2 MSTORE PUSH1 0xB PUSH1 0x20 MSTORE PUSH1 0x40 SWAP1 KECCAK256 SSTORE POP POP JUMP JUMPDEST PUSH1 0x6 DUP1 SLOAD PUSH1 0x1 PUSH1 0x1 PUSH1 0xA0 SHL SUB DUP4 DUP2 AND PUSH1 0x1 PUSH1 0x1 PUSH1 0xA0 SHL SUB NOT DUP4 AND DUP2 OR SWAP1 SWAP4 SSTORE PUSH1 0x40 MLOAD SWAP2 AND SWAP2 SWAP1 DUP3 SWAP1 PUSH32 0x8BE0079C531659141344CD1FD0A4F28419497F9722A3DAAFE3B4186F6B6457E0 SWAP1 PUSH1 0x0 SWAP1 LOG3 POP POP JUMP JUMPDEST PUSH1 0x0 PUSH1 0x20 DUP1 DUP4 MSTORE DUP4 MLOAD DUP1 DUP3 DUP6 ADD MSTORE PUSH1 0x0 JUMPDEST DUP2 DUP2 LT ISZERO PUSH2 0xDE7 JUMPI DUP6 DUP2 ADD DUP4 ADD MLOAD DUP6 DUP3 ADD PUSH1 0x40 ADD MSTORE DUP3 ADD PUSH2 0xDCB JUMP JUMPDEST POP PUSH1 0x0 PUSH1 0x40 DUP3 DUP7 ADD ADD MSTORE PUSH1 0x40 PUSH1 0x1F NOT PUSH1 0x1F DUP4 ADD AND DUP6 ADD ADD SWAP3 POP POP POP SWAP3 SWAP2 POP POP JUMP JUMPDEST DUP1 CALLDATALOAD PUSH1 0x1 PUSH1 0x1 PUSH1 0xA0 SHL SUB DUP2 AND DUP2 EQ PUSH2 0xE1F JUMPI PUSH1 0x0 DUP1 REVERT JUMPDEST SWAP2 SWAP1 POP JUMP JUMPDEST PUSH1 0x0 DUP1 PUSH1 0x40 DUP4 DUP6 SUB SLT ISZERO PUSH2 0xE37 JUMPI PUSH1 0x0 DUP1 REVERT JUMPDEST DUP3 CALLDATALOAD SWAP2 POP PUSH2 0xE47 PUSH1 0x20 DUP5 ADD PUSH2 0xE08 JUMP JUMPDEST SWAP1 POP SWAP3 POP SWAP3 SWAP1 POP JUMP JUMPDEST PUSH1 0x0 PUSH1 0x20 DUP3 DUP5 SUB SLT ISZERO PUSH2 0xE62 JUMPI PUSH1 0x0 DUP1 REVERT JUMPDEST PUSH2 0xE6B DUP3 PUSH2 0xE08 JUMP JUMPDEST SWAP4 SWAP3 POP POP POP JUMP JUMPDEST PUSH1 0x0 DUP1 PUSH1 0x40 DUP4 DUP6 SUB SLT ISZERO PUSH2 0xE85 JUMPI PUSH1 0x0 DUP1 REVERT JUMPDEST PUSH2 0xE8E DUP4 PUSH2 0xE08 JUMP JUMPDEST SWAP2 POP PUSH2 0xE47 PUSH1 0x20 DUP5 ADD PUSH2 0xE08 JUMP JUMPDEST PUSH1 0x0 PUSH1 0x20 DUP3 DUP5 SUB SLT ISZERO PUSH2 0xEAE JUMPI PUSH1 0x0 DUP1 REVERT JUMPDEST POP CALLDATALOAD SWAP2 SWAP1 POP JUMP JUMPDEST PUSH1 0x1 DUP2 DUP2 SHR SWAP1 DUP3 AND DUP1 PUSH2 0xEC9 JUMPI PUSH1 0x7F DUP3 AND SWAP2 POP JUMPDEST PUSH1 0x20 DUP3 LT DUP2 SUB PUSH2 0xEE9 JUMPI PUSH4 0x4E487B71 PUSH1 0xE0 SHL PUSH1 0x0 MSTORE PUSH1 0x22 PUSH1 0x4 MSTORE PUSH1 0x24 PUSH1 0x0 REVERT JUMPDEST POP SWAP2 SWAP1 POP JUMP JUMPDEST PUSH1 0x0 PUSH1 0x20 DUP3 DUP5 SUB SLT ISZERO PUSH2 0xF01 JUMPI PUSH1 0x0 DUP1 REVERT JUMPDEST DUP2 MLOAD DUP1 ISZERO ISZERO DUP2 EQ PUSH2 0xE6B JUMPI PUSH1 0x0 DUP1 REVERT JUMPDEST PUSH4 0x4E487B71 PUSH1 0xE0 SHL PUSH1 0x0 MSTORE PUSH1 0x11 PUSH1 0x4 MSTORE PUSH1 0x24 PUSH1 0x0 REVERT JUMPDEST DUP1 DUP3 ADD DUP1 DUP3 GT ISZERO PUSH2 0xA59 JUMPI PUSH2 0xA59 PUSH2 0xF11 JUMP JUMPDEST PUSH1 0x20 DUP1 DUP3 MSTORE DUP2 DUP2 ADD MSTORE PUSH32 0x4F776E61626C653A2063616C6C6572206973206E6F7420746865206F776E6572 PUSH1 0x40 DUP3 ADD MSTORE PUSH1 0x60 ADD SWAP1 JUMP JUMPDEST DUP2 DUP2 SUB DUP2 DUP2 GT ISZERO PUSH2 0xA59 JUMPI PUSH2 0xA59 PUSH2 0xF11 JUMP JUMPDEST PUSH4 0x4E487B71 PUSH1 0xE0 SHL PUSH1 0x0 MSTORE PUSH1 0x32 PUSH1 0x4 MSTORE PUSH1 0x24 PUSH1 0x0 REVERT JUMPDEST PUSH4 0x4E487B71 PUSH1 0xE0 SHL PUSH1 0x0 MSTORE PUSH1 0x31 PUSH1 0x4 MSTORE PUSH1 0x24 PUSH1 0x0 REVERT JUMPDEST PUSH1 0x0 PUSH1 0x1 DUP3 ADD PUSH2 0xFC0 JUMPI PUSH2 0xFC0 PUSH2 0xF11 JUMP JUMPDEST POP PUSH1 0x1 ADD SWAP1 JUMP JUMPDEST PUSH1 0x1 DUP2 DUP2 JUMPDEST DUP1 DUP6 GT ISZERO PUSH2 0x1002 JUMPI DUP2 PUSH1 0x0 NOT DIV DUP3 GT ISZERO PUSH2 0xFE8 JUMPI PUSH2 0xFE8 PUSH2 0xF11 JUMP JUMPDEST DUP1 DUP6 AND ISZERO PUSH2 0xFF5 JUMPI SWAP2 DUP2 MUL SWAP2 JUMPDEST SWAP4 DUP5 SHR SWAP4 SWAP1 DUP1 MUL SWAP1 PUSH2 0xFCC JUMP JUMPDEST POP SWAP3 POP SWAP3 SWAP1 POP JUMP JUMPDEST PUSH1 0x0 DUP3 PUSH2 0x1019 JUMPI POP PUSH1 0x1 PUSH2 0xA59 JUMP JUMPDEST DUP2 PUSH2 0x1026 JUMPI POP PUSH1 0x0 PUSH2 0xA59 JUMP JUMPDEST DUP2 PUSH1 0x1 DUP2 EQ PUSH2 0x103C JUMPI PUSH1 0x2 DUP2 EQ PUSH2 0x1046 JUMPI PUSH2 0x1062 JUMP JUMPDEST PUSH1 0x1 SWAP2 POP POP PUSH2 0xA59 JUMP JUMPDEST PUSH1 0xFF DUP5 GT ISZERO PUSH2 0x1057 JUMPI PUSH2 0x1057 PUSH2 0xF11 JUMP JUMPDEST POP POP PUSH1 0x1 DUP3 SHL PUSH2 0xA59 JUMP JUMPDEST POP PUSH1 0x20 DUP4 LT PUSH2 0x133 DUP4 LT AND PUSH1 0x4E DUP5 LT PUSH1 0xB DUP5 LT AND OR ISZERO PUSH2 0x1085 JUMPI POP DUP2 DUP2 EXP PUSH2 0xA59 JUMP JUMPDEST PUSH2 0x108F DUP4 DUP4 PUSH2 0xFC7 JUMP JUMPDEST DUP1 PUSH1 0x0 NOT DIV DUP3 GT ISZERO PUSH2 0x10A3 JUMPI PUSH2 0x10A3 PUSH2 0xF11 JUMP JUMPDEST MUL SWAP4 SWAP3 POP POP POP JUMP JUMPDEST PUSH1 0x0 PUSH2 0xE6B DUP4 DUP4 PUSH2 0x100A JUMP JUMPDEST PUSH1 0x0 DUP2 PUSH1 0x0 NOT DIV DUP4 GT DUP3 ISZERO ISZERO AND ISZERO PUSH2 0x10D1 JUMPI PUSH2 0x10D1 PUSH2 0xF11 JUMP JUMPDEST POP MUL SWAP1 JUMP JUMPDEST PUSH1 0x0 DUP3 PUSH2 0x10F3 JUMPI PUSH4 0x4E487B71 PUSH1 0xE0 SHL PUSH1 0x0 MSTORE PUSH1 0x12 PUSH1 0x4 MSTORE PUSH1 0x24 PUSH1 0x0 REVERT JUMPDEST POP DIV SWAP1 JUMP JUMPDEST DUP1 MLOAD PUSH10 0xFFFFFFFFFFFFFFFFFFFF DUP2 AND DUP2 EQ PUSH2 0xE1F JUMPI PUSH1 0x0 DUP1 REVERT JUMPDEST PUSH1 0x0 DUP1 PUSH1 0x0 DUP1 PUSH1 0x0 PUSH1 0xA0 DUP7 DUP9 SUB SLT ISZERO PUSH2 0x112A JUMPI PUSH1 0x0 DUP1 REVERT JUMPDEST PUSH2 0x1133 DUP7 PUSH2 0x10F8 JUMP JUMPDEST SWAP5 POP PUSH1 0x20 DUP7 ADD MLOAD SWAP4 POP PUSH1 0x40 DUP7 ADD MLOAD SWAP3 POP PUSH1 0x60 DUP7 ADD MLOAD SWAP2 POP PUSH2 0x1156 PUSH1 0x80 DUP8 ADD PUSH2 0x10F8 JUMP JUMPDEST SWAP1 POP SWAP3 SWAP6 POP SWAP3 SWAP6 SWAP1 SWAP4 POP JUMP JUMPDEST PUSH1 0x0 PUSH1 0x20 DUP3 DUP5 SUB SLT ISZERO PUSH2 0x1174 JUMPI PUSH1 0x0 DUP1 REVERT JUMPDEST DUP2 MLOAD PUSH1 0xFF DUP2 AND DUP2 EQ PUSH2 0xE6B JUMPI PUSH1 0x0 DUP1 REVERT INVALID LOG2 PUSH5 0x6970667358 0x22 SLT KECCAK256 DUP6 PUSH1 0x98 ADD 0xFC 0x28 0xE5 RETURNDATASIZE 0xCF SWAP11 0xC7 0xCE CHAINID PUSH1 0x80 DUP11 CALLDATASIZE JUMPDEST SHL SWAP8 0x5D GT RETURNDATASIZE COINBASE 0xBC DUP5 SWAP1 INVALID 0xCA STOP PUSH18 0x2264736F6C63430008100033000000000000 ",
  "sha1": "825152ba01d597e6396edf088be7cf33fc55d7c9",
  "source": "// SPDX-License-Identifier: MIT\npragma solidity ^0.8.7;\n\nimport \"@chainlink/contracts/src/v0.8/interfaces/AggregatorV3Interface.sol\";\nimport \"@chainlink/contracts/src/v0.8/ChainlinkClient.sol\";\nimport \"@openzeppelin/contracts/token/ERC20/IERC20.sol\";\nimport \"@openzeppelin/contracts/access/Ownable.sol\";\n\ncontract TokenFarm is ChainlinkClient, Ownable {\n    string public name = \"Golden Token Farm\";\n    IERC20 public goldenToken;\n\n    address[] public stakers;\n    // token > address\n    mapping(address => mapping(address => uint256)) public stakingBalance;\n    mapping(address => uint256) public uniqueTokensStaked;\n    mapping(address => address) public tokenPriceFeedMapping;\n    address[] public allowedTokens;\n\n    constructor(address _goldenTokenAddress) public {\n        goldenToken = IERC20(_goldenTokenAddress);\n    }\n\n    function addAllowedTokens(address token) public onlyOwner {\n        allowedTokens.push(token);\n    }\n\n    function setPriceFeedContract(address token, address priceFeed)\n        public\n        onlyOwner\n    {\n        tokenPriceFeedMapping[token] = priceFeed;\n    }\n\n    function stakeTokens(uint256 _amount, address token) public {\n     // NOTE:\n     // This is vulnerable to a reentrancy attack!!!\n        // Require amount greater than 0\n        require(_amount > 0, \"amount cannot be 0\");\n        require(tokenIsAllowed(token), \"Token currently isn't allowed\");\n        updateUniqueTokensStaked(msg.sender, token);\n        IERC20(token).transferFrom(msg.sender, address(this), _amount);\n        stakingBalance[token][msg.sender] =\n            stakingBalance[token][msg.sender] +\n            _amount;\n        if (uniqueTokensStaked[msg.sender] == 1) {\n            stakers.push(msg.sender);\n        }\n    }\n\n    // Unstaking Tokens (Withdraw)\n    function unstakeTokens(address token) public {\n     // NOTE:\n     // This is vulnerable to a reentrancy attack!!!\n        // Fetch staking balance\n        uint256 balance = stakingBalance[token][msg.sender];\n        require(balance > 0, \"staking balance cannot be 0\");\n        IERC20(token).transfer(msg.sender, balance);\n        stakingBalance[token][msg.sender] = 0;\n        uniqueTokensStaked[msg.sender] = uniqueTokensStaked[msg.sender] - 1;\n\n        // The code below fixes a problem where stakers could not appear twice\n        // in the stakers array, receiving twice the reward.\n        if (uniqueTokensStaked[msg.sender] == 0) {\n            for (\n                uint256 stakersIndex = 0;\n                stakersIndex < stakers.length;\n                stakersIndex++\n            ) {\n                if (stakers[stakersIndex] == msg.sender) {\n                    stakers[stakersIndex] = stakers[stakers.length - 1];\n                    stakers.pop();\n                }\n            }\n        }\n    }\n\n    function getUserTotalValue(address user) public view returns (uint256) {\n        uint256 totalValue = 0;\n        if (uniqueTokensStaked[user] > 0) {\n            for (\n                uint256 allowedTokensIndex = 0;\n                allowedTokensIndex < allowedTokens.length;\n                allowedTokensIndex++\n            ) {\n                totalValue =\n                    totalValue +\n                    getUserTokenStakingBalanceEthValue(\n                        user,\n                        allowedTokens[allowedTokensIndex]\n                    );\n            }\n        }\n        return totalValue;\n    }\n\n    function tokenIsAllowed(address token) public view returns (bool) {\n        for (\n            uint256 allowedTokensIndex = 0;\n            allowedTokensIndex < allowedTokens.length;\n            allowedTokensIndex++\n        ) {\n            if (allowedTokens[allowedTokensIndex] == token) {\n                return true;\n            }\n        }\n        return false;\n    }\n\n    function updateUniqueTokensStaked(address user, address token) internal {\n        if (stakingBalance[token][user] <= 0) {\n            uniqueTokensStaked[user] = uniqueTokensStaked[user] + 1;\n        }\n    }\n\n    function getUserTokenStakingBalanceEthValue(address user, address token)\n        public\n        view\n        returns (uint256)\n    {\n        if (uniqueTokensStaked[user] <= 0) {\n            return 0;\n        }\n        (uint256 price, uint8 decimals) = getTokenEthPrice(token);\n        return\n            (stakingBalance[token][user] * price) / (10**uint256(decimals));\n    }\n\n    // Issuing Tokens\n    function issueTokens() public onlyOwner {\n        // Issue tokens to all stakers\n        for (\n            uint256 stakersIndex = 0;\n            stakersIndex < stakers.length;\n            stakersIndex++\n        ) {\n            address recipient = stakers[stakersIndex];\n            goldenToken.transfer(recipient, getUserTotalValue(recipient));\n        }\n    }\n\n    function getTokenEthPrice(address token) public view returns (uint256, uint8) {\n        address priceFeedAddress = tokenPriceFeedMapping[token];\n        AggregatorV3Interface priceFeed = AggregatorV3Interface(\n            priceFeedAddress\n        );\n        (\n            uint80 roundID,\n            int256 price,\n            uint256 startedAt,\n            uint256 timeStamp,\n            uint80 answeredInRound\n        ) = priceFeed.latestRoundData();\n        return (uint256(price), priceFeed.decimals());\n    }\n}\n\n",
  "sourcePath": "contracts/TokenFarm.sol",
  "type": "contract"
}