{
  "abi": [
    {
      "inputs": [
        {
          "internalType": "address",
          "name": "_goldenTokenAddress",
          "type": "address"
        }
      ],
      "stateMutability": "nonpayable",
      "type": "constructor"
    },
    {
      "anonymous": false,
      "inputs": [
        {
          "indexed": true,
          "internalType": "bytes32",
          "name": "id",
          "type": "bytes32"
        }
      ],
      "name": "ChainlinkCancelled",
      "type": "event"
    },
    {
      "anonymous": false,
      "inputs": [
        {
          "indexed": true,
          "internalType": "bytes32",
          "name": "id",
          "type": "bytes32"
        }
      ],
      "name": "ChainlinkFulfilled",
      "type": "event"
    },
    {
      "anonymous": false,
      "inputs": [
        {
          "indexed": true,
          "internalType": "bytes32",
          "name": "id",
          "type": "bytes32"
        }
      ],
      "name": "ChainlinkRequested",
      "type": "event"
    },
    {
      "anonymous": false,
      "inputs": [
        {
          "indexed": true,
          "internalType": "address",
          "name": "previousOwner",
          "type": "address"
        },
        {
          "indexed": true,
          "internalType": "address",
          "name": "newOwner",
          "type": "address"
        }
      ],
      "name": "OwnershipTransferred",
      "type": "event"
    },
    {
      "inputs": [
        {
          "internalType": "address",
          "name": "token",
          "type": "address"
        }
      ],
      "name": "addAllowedTokens",
      "outputs": [],
      "stateMutability": "nonpayable",
      "type": "function"
    },
    {
      "inputs": [
        {
          "internalType": "uint256",
          "name": "",
          "type": "uint256"
        }
      ],
      "name": "allowedTokens",
      "outputs": [
        {
          "internalType": "address",
          "name": "",
          "type": "address"
        }
      ],
      "stateMutability": "view",
      "type": "function"
    },
    {
      "inputs": [
        {
          "internalType": "address",
          "name": "token",
          "type": "address"
        }
      ],
      "name": "getTokenEthPrice",
      "outputs": [
        {
          "internalType": "uint256",
          "name": "",
          "type": "uint256"
        },
        {
          "internalType": "uint8",
          "name": "",
          "type": "uint8"
        }
      ],
      "stateMutability": "view",
      "type": "function"
    },
    {
      "inputs": [
        {
          "internalType": "address",
          "name": "user",
          "type": "address"
        },
        {
          "internalType": "address",
          "name": "token",
          "type": "address"
        }
      ],
      "name": "getUserTokenStakingBalanceEthValue",
      "outputs": [
        {
          "internalType": "uint256",
          "name": "",
          "type": "uint256"
        }
      ],
      "stateMutability": "view",
      "type": "function"
    },
    {
      "inputs": [
        {
          "internalType": "address",
          "name": "user",
          "type": "address"
        }
      ],
      "name": "getUserTotalValue",
      "outputs": [
        {
          "internalType": "uint256",
          "name": "",
          "type": "uint256"
        }
      ],
      "stateMutability": "view",
      "type": "function"
    },
    {
      "inputs": [],
      "name": "goldenToken",
      "outputs": [
        {
          "internalType": "contract IERC20",
          "name": "",
          "type": "address"
        }
      ],
      "stateMutability": "view",
      "type": "function"
    },
    {
      "inputs": [],
      "name": "issueTokens",
      "outputs": [],
      "stateMutability": "nonpayable",
      "type": "function"
    },
    {
      "inputs": [],
      "name": "name",
      "outputs": [
        {
          "internalType": "string",
          "name": "",
          "type": "string"
        }
      ],
      "stateMutability": "view",
      "type": "function"
    },
    {
      "inputs": [],
      "name": "owner",
      "outputs": [
        {
          "internalType": "address",
          "name": "",
          "type": "address"
        }
      ],
      "stateMutability": "view",
      "type": "function"
    },
    {
      "inputs": [],
      "name": "renounceOwnership",
      "outputs": [],
      "stateMutability": "nonpayable",
      "type": "function"
    },
    {
      "inputs": [
        {
          "internalType": "address",
          "name": "token",
          "type": "address"
        },
        {
          "internalType": "address",
          "name": "priceFeed",
          "type": "address"
        }
      ],
      "name": "setPriceFeedContract",
      "outputs": [],
      "stateMutability": "nonpayable",
      "type": "function"
    },
    {
      "inputs": [
        {
          "internalType": "uint256",
          "name": "_amount",
          "type": "uint256"
        },
        {
          "internalType": "address",
          "name": "token",
          "type": "address"
        }
      ],
      "name": "stakeTokens",
      "outputs": [],
      "stateMutability": "nonpayable",
      "type": "function"
    },
    {
      "inputs": [
        {
          "internalType": "uint256",
          "name": "",
          "type": "uint256"
        }
      ],
      "name": "stakers",
      "outputs": [
        {
          "internalType": "address",
          "name": "",
          "type": "address"
        }
      ],
      "stateMutability": "view",
      "type": "function"
    },
    {
      "inputs": [
        {
          "internalType": "address",
          "name": "",
          "type": "address"
        },
        {
          "internalType": "address",
          "name": "",
          "type": "address"
        }
      ],
      "name": "stakingBalance",
      "outputs": [
        {
          "internalType": "uint256",
          "name": "",
          "type": "uint256"
        }
      ],
      "stateMutability": "view",
      "type": "function"
    },
    {
      "inputs": [
        {
          "internalType": "address",
          "name": "token",
          "type": "address"
        }
      ],
      "name": "tokenIsAllowed",
      "outputs": [
        {
          "internalType": "bool",
          "name": "",
          "type": "bool"
        }
      ],
      "stateMutability": "view",
      "type": "function"
    },
    {
      "inputs": [
        {
          "internalType": "address",
          "name": "",
          "type": "address"
        }
      ],
      "name": "tokenPriceFeedMapping",
      "outputs": [
        {
          "internalType": "address",
          "name": "",
          "type": "address"
        }
      ],
      "stateMutability": "view",
      "type": "function"
    },
    {
      "inputs": [
        {
          "internalType": "address",
          "name": "newOwner",
          "type": "address"
        }
      ],
      "name": "transferOwnership",
      "outputs": [],
      "stateMutability": "nonpayable",
      "type": "function"
    },
    {
      "inputs": [
        {
          "internalType": "address",
          "name": "",
          "type": "address"
        }
      ],
      "name": "uniqueTokensStaked",
      "outputs": [
        {
          "internalType": "uint256",
          "name": "",
          "type": "uint256"
        }
      ],
      "stateMutability": "view",
      "type": "function"
    },
    {
      "inputs": [
        {
          "internalType": "address",
          "name": "token",
          "type": "address"
        }
      ],
      "name": "unstakeTokens",
      "outputs": [],
      "stateMutability": "nonpayable",
      "type": "function"
    }
  ],
  "bytecode": "600160045560c06040526011608090815270476f6c64656e20546f6b656e204661726d60781b60a0526007906100359082610180565b5034801561004257600080fd5b506040516113f33803806113f38339810160408190526100619161023e565b61006a3361008f565b600880546001600160a01b0319166001600160a01b039290921691909117905561026e565b600680546001600160a01b038381166001600160a01b0319831681179093556040519116919082907f8be0079c531659141344cd1fd0a4f28419497f9722a3daafe3b4186f6b6457e090600090a35050565b634e487b7160e01b600052604160045260246000fd5b600181811c9082168061010b57607f821691505b60208210810361012b57634e487b7160e01b600052602260045260246000fd5b50919050565b601f82111561017b57806000526020600020601f840160051c810160208510156101585750805b601f840160051c820191505b818110156101785760008155600101610164565b50505b505050565b81516001600160401b03811115610199576101996100e1565b6101ad816101a784546100f7565b84610131565b6020601f8211600181146101e157600083156101c95750848201515b600019600385901b1c1916600184901b178455610178565b600084815260208120601f198516915b8281101561021157878501518255602094850194600190920191016101f1565b508482101561022f5786840151600019600387901b60f8161c191681555b50505050600190811b01905550565b60006020828403121561025057600080fd5b81516001600160a01b038116811461026757600080fd5b9392505050565b6111768061027d6000396000f3fe608060405234801561001057600080fd5b50600436106101215760003560e01c8063877dd39d116100ad578063b83e023411610071578063b83e023414610279578063dd5b846714610299578063df00018d146102bc578063f2fde38b146102e6578063fd5e6dd1146102f957600080fd5b8063877dd39d1461021c5780638da5cb5b1461022f5780639109754014610240578063af3f5e2214610253578063b22f269f1461026657600080fd5b806329161a00116100f457806329161a00146101ad5780632d1ad8b8146101e65780635e5f2e26146101f957806360ab58521461020c578063715018a61461021457600080fd5b806306fdde03146101265780630bea440d14610144578063171e44ea1461015957806327927b3e1461016c575b600080fd5b61012e61030c565b60405161013b9190610d91565b60405180910390f35b610157610152366004610dfb565b61039a565b005b610157610167366004610e27565b610565565b61019561017a366004610e27565b600c602052600090815260409020546001600160a01b031681565b6040516001600160a01b03909116815260200161013b565b6101d86101bb366004610e49565b600a60209081526000928352604080842090915290825290205481565b60405190815260200161013b565b6101576101f4366004610e27565b6105e1565b610195610207366004610e73565b610814565b61015761083e565b610157610932565b61015761022a366004610e49565b610968565b6006546001600160a01b0316610195565b6101d861024e366004610e49565b6109c0565b6101d8610261366004610e27565b610a4a565b600854610195906001600160a01b031681565b6101d8610287366004610e27565b600b6020526000908152604090205481565b6102ac6102a7366004610e27565b610ac3565b604051901515815260200161013b565b6102cf6102ca366004610e27565b610b22565b6040805192835260ff90911660208301520161013b565b6101576102f4366004610e27565b610c2c565b610195610307366004610e73565b610cc4565b6007805461031990610e8c565b80601f016020809104026020016040519081016040528092919081815260200182805461034590610e8c565b80156103925780601f1061036757610100808354040283529160200191610392565b820191906000526020600020905b81548152906001019060200180831161037557829003601f168201915b505050505081565b600082116103e45760405162461bcd60e51b81526020600482015260126024820152710616d6f756e742063616e6e6f7420626520360741b60448201526064015b60405180910390fd5b6103ed81610ac3565b6104395760405162461bcd60e51b815260206004820152601d60248201527f546f6b656e2063757272656e746c792069736e277420616c6c6f77656400000060448201526064016103db565b6104433382610cd4565b6040516323b872dd60e01b8152336004820152306024820152604481018390526001600160a01b038216906323b872dd906064016020604051808303816000875af1158015610496573d6000803e3d6000fd5b505050506040513d601f19601f820116820180604052508101906104ba9190610ec6565b506001600160a01b0381166000908152600a602090815260408083203384529091529020546104ea908390610efe565b6001600160a01b0382166000908152600a60209081526040808320338452825280832093909355600b9052205460010361056157600980546001810182556000919091527f6e1540171b6c0c960b71a7020d9f60077f6af931a8bbf590da0223dacf75c7af0180546001600160a01b031916331790555b5050565b6006546001600160a01b0316331461058f5760405162461bcd60e51b81526004016103db90610f11565b600d80546001810182556000919091527fd7b6990105719101dabeb77144f2a3385c8033acd3af97e9423a695e81ad1eb50180546001600160a01b0319166001600160a01b0392909216919091179055565b6001600160a01b0381166000908152600a60209081526040808320338452909152902054806106525760405162461bcd60e51b815260206004820152601b60248201527f7374616b696e672062616c616e63652063616e6e6f742062652030000000000060448201526064016103db565b60405163a9059cbb60e01b8152336004820152602481018290526001600160a01b0383169063a9059cbb906044016020604051808303816000875af115801561069f573d6000803e3d6000fd5b505050506040513d601f19601f820116820180604052508101906106c39190610ec6565b506001600160a01b0382166000908152600a602090815260408083203384528252808320839055600b9091529020546106fe90600190610f46565b336000908152600b60205260408120829055036105615760005b60095481101561080f57336001600160a01b03166009828154811061073f5761073f610f59565b6000918252602090912001546001600160a01b031603610807576009805461076990600190610f46565b8154811061077957610779610f59565b600091825260209091200154600980546001600160a01b0390921691839081106107a5576107a5610f59565b9060005260206000200160006101000a8154816001600160a01b0302191690836001600160a01b0316021790555060098054806107e4576107e4610f6f565b600082815260209020810160001990810180546001600160a01b03191690550190555b600101610718565b505050565b600d818154811061082457600080fd5b6000918252602090912001546001600160a01b0316905081565b6006546001600160a01b031633146108685760405162461bcd60e51b81526004016103db90610f11565b60005b60095481101561092f5760006009828154811061088a5761088a610f59565b6000918252602090912001546008546001600160a01b0391821692501663a9059cbb826108b681610a4a565b6040516001600160e01b031960e085901b1681526001600160a01b03909216600483015260248201526044016020604051808303816000875af1158015610901573d6000803e3d6000fd5b505050506040513d601f19601f820116820180604052508101906109259190610ec6565b505060010161086b565b50565b6006546001600160a01b0316331461095c5760405162461bcd60e51b81526004016103db90610f11565b6109666000610d3f565b565b6006546001600160a01b031633146109925760405162461bcd60e51b81526004016103db90610f11565b6001600160a01b039182166000908152600c6020526040902080546001600160a01b03191691909216179055565b6001600160a01b0382166000908152600b60205260408120546109e557506000610a44565b6000806109f184610b22565b9092509050610a0460ff8216600a61106c565b6001600160a01b038086166000908152600a60209081526040808320938a1683529290522054610a35908490611078565b610a3f919061108f565b925050505b92915050565b6001600160a01b0381166000908152600b6020526040812054819015610a445760005b600d54811015610abc57610aa884600d8381548110610a8e57610a8e610f59565b6000918252602090912001546001600160a01b03166109c0565b610ab29083610efe565b9150600101610a6d565b5092915050565b6000805b600d54811015610b1957826001600160a01b0316600d8281548110610aee57610aee610f59565b6000918252602090912001546001600160a01b031603610b115750600192915050565b600101610ac7565b50600092915050565b6001600160a01b038082166000908152600c6020526040808220548151633fabe5a360e21b8152915192938493911691829184918291829182918291879163feaf968c9160048082019260a0929091908290030181865afa158015610b8b573d6000803e3d6000fd5b505050506040513d601f19601f82011682018060405250810190610baf91906110cb565b9450945094509450945083866001600160a01b031663313ce5676040518163ffffffff1660e01b8152600401602060405180830381865afa158015610bf8573d6000803e3d6000fd5b505050506040513d601f19601f82011682018060405250810190610c1c919061111d565b9850985050505050505050915091565b6006546001600160a01b03163314610c565760405162461bcd60e51b81526004016103db90610f11565b6001600160a01b038116610cbb5760405162461bcd60e51b815260206004820152602660248201527f4f776e61626c653a206e6577206f776e657220697320746865207a65726f206160448201526564647265737360d01b60648201526084016103db565b61092f81610d3f565b6009818154811061082457600080fd5b6001600160a01b038082166000908152600a6020908152604080832093861683529290522054610561576001600160a01b0382166000908152600b6020526040902054610d22906001610efe565b6001600160a01b0383166000908152600b60205260409020555050565b600680546001600160a01b038381166001600160a01b0319831681179093556040519116919082907f8be0079c531659141344cd1fd0a4f28419497f9722a3daafe3b4186f6b6457e090600090a35050565b602081526000825180602084015260005b81811015610dbf5760208186018101516040868401015201610da2565b506000604082850101526040601f19601f83011684010191505092915050565b80356001600160a01b0381168114610df657600080fd5b919050565b60008060408385031215610e0e57600080fd5b82359150610e1e60208401610ddf565b90509250929050565b600060208284031215610e3957600080fd5b610e4282610ddf565b9392505050565b60008060408385031215610e5c57600080fd5b610e6583610ddf565b9150610e1e60208401610ddf565b600060208284031215610e8557600080fd5b5035919050565b600181811c90821680610ea057607f821691505b602082108103610ec057634e487b7160e01b600052602260045260246000fd5b50919050565b600060208284031215610ed857600080fd5b81518015158114610e4257600080fd5b634e487b7160e01b600052601160045260246000fd5b80820180821115610a4457610a44610ee8565b6020808252818101527f4f776e61626c653a2063616c6c6572206973206e6f7420746865206f776e6572604082015260600190565b81810381811115610a4457610a44610ee8565b634e487b7160e01b600052603260045260246000fd5b634e487b7160e01b600052603160045260246000fd5b6001815b6001841115610fc057808504811115610fa457610fa4610ee8565b6001841615610fb257908102905b60019390931c928002610f89565b935093915050565b600082610fd757506001610a44565b81610fe457506000610a44565b8160018114610ffa576002811461100457611020565b6001915050610a44565b60ff84111561101557611015610ee8565b50506001821b610a44565b5060208310610133831016604e8410600b8410161715611043575081810a610a44565b6110506000198484610f85565b806000190482111561106457611064610ee8565b029392505050565b6000610e428383610fc8565b8082028115828204841417610a4457610a44610ee8565b6000826110ac57634e487b7160e01b600052601260045260246000fd5b500490565b805169ffffffffffffffffffff81168114610df657600080fd5b600080600080600060a086880312156110e357600080fd5b6110ec866110b1565b60208701516040880151606089015192975090955093509150611111608087016110b1565b90509295509295909350565b60006020828403121561112f57600080fd5b815160ff81168114610e4257600080fdfea26469706673582212205687cc3ce0a9c71fbed2bd68c2a31dda43885b1dda9d421e3668bed73081ed3564736f6c634300081f0033",
  "bytecodeSha1": "9c27fa8ce4b6f9bb6c1cc3757501385d1e60d689",
  "compiler": {
    "evm_version": "istanbul",
    "optimizer": {
      "enabled": true,
      "runs": 200
    },
    "version": "0.8.31+commit.fd3a2265"
  },
  "contractName": "TokenFarm",
  "language": "Solidity",
  "natspec": {
    "kind": "dev",
    "methods": {
      "owner()": {
        "details": "Returns the address of the current owner."
      },
      "renounceOwnership()": {
        "details": "Leaves the contract without owner. It will not be possible to call `onlyOwner` functions anymore. Can only be called by the current owner. NOTE: Renouncing ownership will leave the contract without an owner, thereby removing any functionality that is only available to the owner."
      },
      "transferOwnership(address)": {
        "details": "Transfers ownership of the contract to a new account (`newOwner`). Can only be called by the current owner."
      }
    },
    "version": 1
  },
  "opcodes": "PUSH1 0x80 PUSH1 0x40 MSTORE CALLVALUE DUP1 ISZERO PUSH2 0x10 JUMPI PUSH1 0x0 DUP1 REVERT JUMPDEST POP PUSH1 0x4 CALLDATASIZE LT PUSH2 0x121 JUMPI PUSH1 0x0 CALLDATALOAD PUSH1 0xE0 SHR DUP1 PUSH4 0x877DD39D GT PUSH2 0xAD JUMPI DUP1 PUSH4 0xB83E0234 GT PUSH2 0x71 JUMPI DUP1 PUSH4 0xB83E0234 EQ PUSH2 0x279 JUMPI DUP1 PUSH4 0xDD5B8467 EQ PUSH2 0x299 JUMPI DUP1 PUSH4 0xDF00018D EQ PUSH2 0x2BC JUMPI DUP1 PUSH4 0xF2FDE38B EQ PUSH2 0x2E6 JUMPI DUP1 PUSH4 0xFD5E6DD1 EQ PUSH2 0x2F9 JUMPI PUSH1 0x0 DUP1 REVERT JUMPDEST DUP1 PUSH4 0x877DD39D EQ PUSH2 0x21C JUMPI DUP1 PUSH4 0x8DA5CB5B EQ PUSH2 0x22F JUMPI DUP1 PUSH4 0x91097540 EQ PUSH2 0x240 JUMPI DUP1 PUSH4 0xAF3F5E22 EQ PUSH2 0x253 JUMPI DUP1 PUSH4 0xB22F269F EQ PUSH2 0x266 JUMPI PUSH1 0x0 DUP1 REVERT JUMPDEST DUP1 PUSH4 0x29161A00 GT PUSH2 0xF4 JUMPI DUP1 PUSH4 0x29161A00 EQ PUSH2 0x1AD JUMPI DUP1 PUSH4 0x2D1AD8B8 EQ PUSH2 0x1E6 JUMPI DUP1 PUSH4 0x5E5F2E26 EQ PUSH2 0x1F9 JUMPI DUP1 PUSH4 0x60AB5852 EQ PUSH2 0x20C JUMPI DUP1 PUSH4 0x715018A6 EQ PUSH2 0x214 JUMPI PUSH1 0x0 DUP1 REVERT JUMPDEST DUP1 PUSH4 0x6FDDE03 EQ PUSH2 0x126 JUMPI DUP1 PUSH4 0xBEA440D EQ PUSH2 0x144 JUMPI DUP1 PUSH4 0x171E44EA EQ PUSH2 0x159 JUMPI DUP1 PUSH4 0x27927B3E EQ PUSH2 0x16C JUMPI JUMPDEST PUSH1 0x0 DUP1 REVERT JUMPDEST PUSH2 0x12E PUSH2 0x30C JUMP JUMPDEST PUSH1 0x40 MLOAD PUSH2 0x13B SWAP2 SWAP1 PUSH2 0xD91 JUMP JUMPDEST PUSH1 0x40 MLOAD DUP1 SWAP2 SUB SWAP1 RETURN JUMPDEST PUSH2 0x157 PUSH2 0x152 CALLDATASIZE PUSH1 0x4 PUSH2 0xDFB JUMP JUMPDEST PUSH2 0x39A JUMP JUMPDEST STOP JUMPDEST PUSH2 0x157 PUSH2 0x167 CALLDATASIZE PUSH1 0x4 PUSH2 0xE27 JUMP JUMPDEST PUSH2 0x565 JUMP JUMPDEST PUSH2 0x195 PUSH2 0x17A CALLDATASIZE PUSH1 0x4 PUSH2 0xE27 JUMP JUMPDEST PUSH1 0xC PUSH1 0x20 MSTORE PUSH1 0x0 SWAP1 DUP2 MSTORE PUSH1 0x40 SWAP1 KECCAK256 SLOAD PUSH1 0x1 PUSH1 0x1 PUSH1 0xA0 SHL SUB AND DUP2 JUMP JUMPDEST PUSH1 0x40 MLOAD PUSH1 0x1 PUSH1 0x1 PUSH1 0xA0 SHL SUB SWAP1 SWAP2 AND DUP2 MSTORE PUSH1 0x20 ADD PUSH2 0x13B JUMP JUMPDEST PUSH2 0x1D8 PUSH2 0x1BB CALLDATASIZE PUSH1 0x4 PUSH2 0xE49 JUMP JUMPDEST PUSH1 0xA PUSH1 0x20 SWAP1 DUP2 MSTORE PUSH1 0x0 SWAP3 DUP4 MSTORE PUSH1 0x40 DUP1 DUP5 KECCAK256 SWAP1 SWAP2 MSTORE SWAP1 DUP3 MSTORE SWAP1 KECCAK256 SLOAD DUP2 JUMP JUMPDEST PUSH1 0x40 MLOAD SWAP1 DUP2 MSTORE PUSH1 0x20 ADD PUSH2 0x13B JUMP JUMPDEST PUSH2 0x157 PUSH2 0x1F4 CALLDATASIZE PUSH1 0x4 PUSH2 0xE27 JUMP JUMPDEST PUSH2 0x5E1 JUMP JUMPDEST PUSH2 0x195 PUSH2 0x207 CALLDATASIZE PUSH1 0x4 PUSH2 0xE73 JUMP JUMPDEST PUSH2 0x814 JUMP JUMPDEST PUSH2 0x157 PUSH2 0x83E JUMP JUMPDEST PUSH2 0x157 PUSH2 0x932 JUMP JUMPDEST PUSH2 0x157 PUSH2 0x22A CALLDATASIZE PUSH1 0x4 PUSH2 0xE49 JUMP JUMPDEST PUSH2 0x968 JUMP JUMPDEST PUSH1 0x6 SLOAD PUSH1 0x1 PUSH1 0x1 PUSH1 0xA0 SHL SUB AND PUSH2 0x195 JUMP JUMPDEST PUSH2 0x1D8 PUSH2 0x24E CALLDATASIZE PUSH1 0x4 PUSH2 0xE49 JUMP JUMPDEST PUSH2 0x9C0 JUMP JUMPDEST PUSH2 0x1D8 PUSH2 0x261 CALLDATASIZE PUSH1 0x4 PUSH2 0xE27 JUMP JUMPDEST PUSH2 0xA4A JUMP JUMPDEST PUSH1 0x8 SLOAD PUSH2 0x195 SWAP1 PUSH1 0x1 PUSH1 0x1 PUSH1 0xA0 SHL SUB AND DUP2 JUMP JUMPDEST PUSH2 0x1D8 PUSH2 0x287 CALLDATASIZE PUSH1 0x4 PUSH2 0xE27 JUMP JUMPDEST PUSH1 0xB PUSH1 0x20 MSTORE PUSH1 0x0 SWAP1 DUP2 MSTORE PUSH1 0x40 SWAP1 KECCAK256 SLOAD DUP2 JUMP JUMPDEST PUSH2 0x2AC PUSH2 0x2A7 CALLDATASIZE PUSH1 0x4 PUSH2 0xE27 JUMP JUMPDEST PUSH2 0xAC3 JUMP JUMPDEST PUSH1 0x40 MLOAD SWAP1 ISZERO ISZERO DUP2 MSTORE PUSH1 0x20 ADD PUSH2 0x13B JUMP JUMPDEST PUSH2 0x2CF PUSH2 0x2CA CALLDATASIZE PUSH1 0x4 PUSH2 0xE27 JUMP JUMPDEST PUSH2 0xB22 JUMP JUMPDEST PUSH1 0x40 DUP1 MLOAD SWAP3 DUP4 MSTORE PUSH1 0xFF SWAP1 SWAP2 AND PUSH1 0x20 DUP4 ADD MSTORE ADD PUSH2 0x13B JUMP JUMPDEST PUSH2 0x157 PUSH2 0x2F4 CALLDATASIZE PUSH1 0x4 PUSH2 0xE27 JUMP JUMPDEST PUSH2 0xC2C JUMP JUMPDEST PUSH2 0x195 PUSH2 0x307 CALLDATASIZE PUSH1 0x4 PUSH2 0xE73 JUMP JUMPDEST PUSH2 0xCC4 JUMP JUMPDEST PUSH1 0x7 DUP1 SLOAD PUSH2 0x319 SWAP1 PUSH2 0xE8C JUMP JUMPDEST DUP1 PUSH1 0x1F ADD PUSH1 0x20 DUP1 SWAP2 DIV MUL PUSH1 0x20 ADD PUSH1 0x40 MLOAD SWAP1 DUP2 ADD PUSH1 0x40 MSTORE DUP1 SWAP3 SWAP2 SWAP1 DUP2 DUP2 MSTORE PUSH1 0x20 ADD DUP3 DUP1 SLOAD PUSH2 0x345 SWAP1 PUSH2 0xE8C JUMP JUMPDEST DUP1 ISZERO PUSH2 0x392 JUMPI DUP1 PUSH1 0x1F LT PUSH2 0x367 JUMPI PUSH2 0x100 DUP1 DUP4 SLOAD DIV MUL DUP4 MSTORE SWAP2 PUSH1 0x20 ADD SWAP2 PUSH2 0x392 JUMP JUMPDEST DUP3 ADD SWAP2 SWAP1 PUSH1 0x0 MSTORE PUSH1 0x20 PUSH1 0x0 KECCAK256 SWAP1 JUMPDEST DUP2 SLOAD DUP2 MSTORE SWAP1 PUSH1 0x1 ADD SWAP1 PUSH1 0x20 ADD DUP1 DUP4 GT PUSH2 0x375 JUMPI DUP3 SWAP1 SUB PUSH1 0x1F AND DUP3 ADD SWAP2 JUMPDEST POP POP POP POP POP DUP2 JUMP JUMPDEST PUSH1 0x0 DUP3 GT PUSH2 0x3E4 JUMPI PUSH1 0x40 MLOAD PUSH3 0x461BCD PUSH1 0xE5 SHL DUP2 MSTORE PUSH1 0x20 PUSH1 0x4 DUP3 ADD MSTORE PUSH1 0x12 PUSH1 0x24 DUP3 ADD MSTORE PUSH18 0x616D6F756E742063616E6E6F74206265203 PUSH1 0x74 SHL PUSH1 0x44 DUP3 ADD MSTORE PUSH1 0x64 ADD JUMPDEST PUSH1 0x40 MLOAD DUP1 SWAP2 SUB SWAP1 REVERT JUMPDEST PUSH2 0x3ED DUP2 PUSH2 0xAC3 JUMP JUMPDEST PUSH2 0x439 JUMPI PUSH1 0x40 MLOAD PUSH3 0x461BCD PUSH1 0xE5 SHL DUP2 MSTORE PUSH1 0x20 PUSH1 0x4 DUP3 ADD MSTORE PUSH1 0x1D PUSH1 0x24 DUP3 ADD MSTORE PUSH32 0x546F6B656E2063757272656E746C792069736E277420616C6C6F776564000000 PUSH1 0x44 DUP3 ADD MSTORE PUSH1 0x64 ADD PUSH2 0x3DB JUMP JUMPDEST PUSH2 0x443 CALLER DUP3 PUSH2 0xCD4 JUMP JUMPDEST PUSH1 0x40 MLOAD PUSH4 0x23B872DD PUSH1 0xE0 SHL DUP2 MSTORE CALLER PUSH1 0x4 DUP3 ADD MSTORE ADDRESS PUSH1 0x24 DUP3 ADD MSTORE PUSH1 0x44 DUP2 ADD DUP4 SWAP1 MSTORE PUSH1 0x1 PUSH1 0x1 PUSH1 0xA0 SHL SUB DUP3 AND SWAP1 PUSH4 0x23B872DD SWAP1 PUSH1 0x64 ADD PUSH1 0x20 PUSH1 0x40 MLOAD DUP1 DUP4 SUB DUP2 PUSH1 0x0 DUP8 GAS CALL ISZERO DUP1 ISZERO PUSH2 0x496 JUMPI RETURNDATASIZE PUSH1 0x0 DUP1 RETURNDATACOPY RETURNDATASIZE PUSH1 0x0 REVERT JUMPDEST POP POP POP POP PUSH1 0x40 MLOAD RETURNDATASIZE PUSH1 0x1F NOT PUSH1 0x1F DUP3 ADD AND DUP3 ADD DUP1 PUSH1 0x40 MSTORE POP DUP2 ADD SWAP1 PUSH2 0x4BA SWAP2 SWAP1 PUSH2 0xEC6 JUMP JUMPDEST POP PUSH1 0x1 PUSH1 0x1 PUSH1 0xA0 SHL SUB DUP2 AND PUSH1 0x0 SWAP1 DUP2 MSTORE PUSH1 0xA PUSH1 0x20 SWAP1 DUP2 MSTORE PUSH1 0x40 DUP1 DUP4 KECCAK256 CALLER DUP5 MSTORE SWAP1 SWAP2 MSTORE SWAP1 KECCAK256 SLOAD PUSH2 0x4EA SWAP1 DUP4 SWAP1 PUSH2 0xEFE JUMP JUMPDEST PUSH1 0x1 PUSH1 0x1 PUSH1 0xA0 SHL SUB DUP3 AND PUSH1 0x0 SWAP1 DUP2 MSTORE PUSH1 0xA PUSH1 0x20 SWAP1 DUP2 MSTORE PUSH1 0x40 DUP1 DUP4 KECCAK256 CALLER DUP5 MSTORE DUP3 MSTORE DUP1 DUP4 KECCAK256 SWAP4 SWAP1 SWAP4 SSTORE PUSH1 0xB SWAP1 MSTORE KECCAK256 SLOAD PUSH1 0x1 SUB PUSH2 0x561 JUMPI PUSH1 0x9 DUP1 SLOAD PUSH1 0x1 DUP2 ADD DUP3 SSTORE PUSH1 0x0 SWAP2 SWAP1 SWAP2 MSTORE PUSH32 0x6E1540171B6C0C960B71A7020D9F60077F6AF931A8BBF590DA0223DACF75C7AF ADD DUP1 SLOAD PUSH1 0x1 PUSH1 0x1 PUSH1 0xA0 SHL SUB NOT AND CALLER OR SWAP1 SSTORE JUMPDEST POP POP JUMP JUMPDEST PUSH1 0x6 SLOAD PUSH1 0x1 PUSH1 0x1 PUSH1 0xA0 SHL SUB AND CALLER EQ PUSH2 0x58F JUMPI PUSH1 0x40 MLOAD PUSH3 0x461BCD PUSH1 0xE5 SHL DUP2 MSTORE PUSH1 0x4 ADD PUSH2 0x3DB SWAP1 PUSH2 0xF11 JUMP JUMPDEST PUSH1 0xD DUP1 SLOAD PUSH1 0x1 DUP2 ADD DUP3 SSTORE PUSH1 0x0 SWAP2 SWAP1 SWAP2 MSTORE PUSH32 0xD7B6990105719101DABEB77144F2A3385C8033ACD3AF97E9423A695E81AD1EB5 ADD DUP1 SLOAD PUSH1 0x1 PUSH1 0x1 PUSH1 0xA0 SHL SUB NOT AND PUSH1 0x1 PUSH1 0x1 PUSH1 0xA0 SHL SUB SWAP3 SWAP1 SWAP3 AND SWAP2 SWAP1 SWAP2 OR SWAP1 SSTORE JUMP JUMPDEST PUSH1 0x1 PUSH1 0x1 PUSH1 0xA0 SHL SUB DUP2 AND PUSH1 0x0 SWAP1 DUP2 MSTORE PUSH1 0xA PUSH1 0x20 SWAP1 DUP2 MSTORE PUSH1 0x40 DUP1 DUP4 KECCAK256 CALLER DUP5 MSTORE SWAP1 SWAP2 MSTORE SWAP1 KECCAK256 SLOAD DUP1 PUSH2 0x652 JUMPI PUSH1 0x40 MLOAD PUSH3 0x461BCD PUSH1 0xE5 SHL DUP2 MSTORE PUSH1 0x20 PUSH1 0x4 DUP3 ADD MSTORE PUSH1 0x1B PUSH1 0x24 DUP3 ADD MSTORE PUSH32 0x7374616B696E672062616C616E63652063616E6E6F7420626520300000000000 PUSH1 0x44 DUP3 ADD MSTORE PUSH1 0x64 ADD PUSH2 0x3DB JUMP JUMPDEST PUSH1 0x40 MLOAD PUSH4 0xA9059CBB PUSH1 0xE0 SHL DUP2 MSTORE CALLER PUSH1 0x4 DUP3 ADD MSTORE PUSH1 0x24 DUP2 ADD DUP3 SWAP1 MSTORE PUSH1 0x1 PUSH1 0x1 PUSH1 0xA0 SHL SUB DUP4 AND SWAP1 PUSH4 0xA9059CBB SWAP1 PUSH1 0x44 ADD PUSH1 0x20 PUSH1 0x40 MLOAD DUP1 DUP4 SUB DUP2 PUSH1 0x0 DUP8 GAS CALL ISZERO DUP1 ISZERO PUSH2 0x69F JUMPI RETURNDATASIZE PUSH1 0x0 DUP1 RETURNDATACOPY RETURNDATASIZE PUSH1 0x0 REVERT JUMPDEST POP POP POP POP PUSH1 0x40 MLOAD RETURNDATASIZE PUSH1 0x1F NOT PUSH1 0x1F DUP3 ADD AND DUP3 ADD DUP1 PUSH1 0x40 MSTORE POP DUP2 ADD SWAP1 PUSH2 0x6C3 SWAP2 SWAP1 PUSH2 0xEC6 JUMP JUMPDEST POP PUSH1 0x1 PUSH1 0x1 PUSH1 0xA0 SHL SUB DUP3 AND PUSH1 0x0 SWAP1 DUP2 MSTORE PUSH1 0xA PUSH1 0x20 SWAP1 DUP2 MSTORE PUSH1 0x40 DUP1 DUP4 KECCAK256 CALLER DUP5 MSTORE DUP3 MSTORE DUP1 DUP4 KECCAK256 DUP4 SWAP1 SSTORE PUSH1 0xB SWAP1 SWAP2 MSTORE SWAP1 KECCAK256 SLOAD PUSH2 0x6FE SWAP1 PUSH1 0x1 SWAP1 PUSH2 0xF46 JUMP JUMPDEST CALLER PUSH1 0x0 SWAP1 DUP2 MSTORE PUSH1 0xB PUSH1 0x20 MSTORE PUSH1 0x40 DUP2 KECCAK256 DUP3 SWAP1 SSTORE SUB PUSH2 0x561 JUMPI PUSH1 0x0 JUMPDEST PUSH1 0x9 SLOAD DUP2 LT ISZERO PUSH2 0x80F JUMPI CALLER PUSH1 0x1 PUSH1 0x1 PUSH1 0xA0 SHL SUB AND PUSH1 0x9 DUP3 DUP2 SLOAD DUP2 LT PUSH2 0x73F JUMPI PUSH2 0x73F PUSH2 0xF59 JUMP JUMPDEST PUSH1 0x0 SWAP2 DUP3 MSTORE PUSH1 0x20 SWAP1 SWAP2 KECCAK256 ADD SLOAD PUSH1 0x1 PUSH1 0x1 PUSH1 0xA0 SHL SUB AND SUB PUSH2 0x807 JUMPI PUSH1 0x9 DUP1 SLOAD PUSH2 0x769 SWAP1 PUSH1 0x1 SWAP1 PUSH2 0xF46 JUMP JUMPDEST DUP2 SLOAD DUP2 LT PUSH2 0x779 JUMPI PUSH2 0x779 PUSH2 0xF59 JUMP JUMPDEST PUSH1 0x0 SWAP2 DUP3 MSTORE PUSH1 0x20 SWAP1 SWAP2 KECCAK256 ADD SLOAD PUSH1 0x9 DUP1 SLOAD PUSH1 0x1 PUSH1 0x1 PUSH1 0xA0 SHL SUB SWAP1 SWAP3 AND SWAP2 DUP4 SWAP1 DUP2 LT PUSH2 0x7A5 JUMPI PUSH2 0x7A5 PUSH2 0xF59 JUMP JUMPDEST SWAP1 PUSH1 0x0 MSTORE PUSH1 0x20 PUSH1 0x0 KECCAK256 ADD PUSH1 0x0 PUSH2 0x100 EXP DUP2 SLOAD DUP2 PUSH1 0x1 PUSH1 0x1 PUSH1 0xA0 SHL SUB MUL NOT AND SWAP1 DUP4 PUSH1 0x1 PUSH1 0x1 PUSH1 0xA0 SHL SUB AND MUL OR SWAP1 SSTORE POP PUSH1 0x9 DUP1 SLOAD DUP1 PUSH2 0x7E4 JUMPI PUSH2 0x7E4 PUSH2 0xF6F JUMP JUMPDEST PUSH1 0x0 DUP3 DUP2 MSTORE PUSH1 0x20 SWAP1 KECCAK256 DUP2 ADD PUSH1 0x0 NOT SWAP1 DUP2 ADD DUP1 SLOAD PUSH1 0x1 PUSH1 0x1 PUSH1 0xA0 SHL SUB NOT AND SWAP1 SSTORE ADD SWAP1 SSTORE JUMPDEST PUSH1 0x1 ADD PUSH2 0x718 JUMP JUMPDEST POP POP POP JUMP JUMPDEST PUSH1 0xD DUP2 DUP2 SLOAD DUP2 LT PUSH2 0x824 JUMPI PUSH1 0x0 DUP1 REVERT JUMPDEST PUSH1 0x0 SWAP2 DUP3 MSTORE PUSH1 0x20 SWAP1 SWAP2 KECCAK256 ADD SLOAD PUSH1 0x1 PUSH1 0x1 PUSH1 0xA0 SHL SUB AND SWAP1 POP DUP2 JUMP JUMPDEST PUSH1 0x6 SLOAD PUSH1 0x1 PUSH1 0x1 PUSH1 0xA0 SHL SUB AND CALLER EQ PUSH2 0x868 JUMPI PUSH1 0x40 MLOAD PUSH3 0x461BCD PUSH1 0xE5 SHL DUP2 MSTORE PUSH1 0x4 ADD PUSH2 0x3DB SWAP1 PUSH2 0xF11 JUMP JUMPDEST PUSH1 0x0 JUMPDEST PUSH1 0x9 SLOAD DUP2 LT ISZERO PUSH2 0x92F JUMPI PUSH1 0x0 PUSH1 0x9 DUP3 DUP2 SLOAD DUP2 LT PUSH2 0x88A JUMPI PUSH2 0x88A PUSH2 0xF59 JUMP JUMPDEST PUSH1 0x0 SWAP2 DUP3 MSTORE PUSH1 0x20 SWAP1 SWAP2 KECCAK256 ADD SLOAD PUSH1 0x8 SLOAD PUSH1 0x1 PUSH1 0x1 PUSH1 0xA0 SHL SUB SWAP2 DUP3 AND SWAP3 POP AND PUSH4 0xA9059CBB DUP3 PUSH2 0x8B6 DUP2 PUSH2 0xA4A JUMP JUMPDEST PUSH1 0x40 MLOAD PUSH1 0x1 PUSH1 0x1 PUSH1 0xE0 SHL SUB NOT PUSH1 0xE0 DUP6 SWAP1 SHL AND DUP2 MSTORE PUSH1 0x1 PUSH1 0x1 PUSH1 0xA0 SHL SUB SWAP1 SWAP3 AND PUSH1 0x4 DUP4 ADD MSTORE PUSH1 0x24 DUP3 ADD MSTORE PUSH1 0x44 ADD PUSH1 0x20 PUSH1 0x40 MLOAD DUP1 DUP4 SUB DUP2 PUSH1 0x0 DUP8 GAS CALL ISZERO DUP1 ISZERO PUSH2 0x901 JUMPI RETURNDATASIZE PUSH1 0x0 DUP1 RETURNDATACOPY RETURNDATASIZE PUSH1 0x0 REVERT JUMPDEST POP POP POP POP PUSH1 0x40 MLOAD RETURNDATASIZE PUSH1 0x1F NOT PUSH1 0x1F DUP3 ADD AND DUP3 ADD DUP1 PUSH1 0x40 MSTORE POP DUP2 ADD SWAP1 PUSH2 0x925 SWAP2 SWAP1 PUSH2 0xEC6 JUMP JUMPDEST POP POP PUSH1 0x1 ADD PUSH2 0x86B JUMP JUMPDEST POP JUMP JUMPDEST PUSH1 0x6 SLOAD PUSH1 0x1 PUSH1 0x1 PUSH1 0xA0 SHL SUB AND CALLER EQ PUSH2 0x95C JUMPI PUSH1 0x40 MLOAD PUSH3 0x461BCD PUSH1 0xE5 SHL DUP2 MSTORE PUSH1 0x4 ADD PUSH2 0x3DB SWAP1 PUSH2 0xF11 JUMP JUMPDEST PUSH2 0x966 PUSH1 0x0 PUSH2 0xD3F JUMP JUMPDEST JUMP JUMPDEST PUSH1 0x6 SLOAD PUSH1 0x1 PUSH1 0x1 PUSH1 0xA0 SHL SUB AND CALLER EQ PUSH2 0x992 JUMPI PUSH1 0x40 MLOAD PUSH3 0x461BCD PUSH1 0xE5 SHL DUP2 MSTORE PUSH1 0x4 ADD PUSH2 0x3DB SWAP1 PUSH2 0xF11 JUMP JUMPDEST PUSH1 0x1 PUSH1 0x1 PUSH1 0xA0 SHL SUB SWAP2 DUP3 AND PUSH1 0x0 SWAP1 DUP2 MSTORE PUSH1 0xC PUSH1 0x20 MSTORE PUSH1 0x40 SWAP1 KECCAK256 DUP1 SLOAD PUSH1 0x1 PUSH1 0x1 PUSH1 0xA0 SHL SUB NOT AND SWAP2 SWAP1 SWAP3 AND OR SWAP1 SSTORE JUMP JUMPDEST PUSH1 0x1 PUSH1 0x1 PUSH1 0xA0 SHL SUB DUP3 AND PUSH1 0x0 SWAP1 DUP2 MSTORE PUSH1 0xB PUSH1 0x20 MSTORE PUSH1 0x40 DUP2 KECCAK256 SLOAD PUSH2 0x9E5 JUMPI POP PUSH1 0x0 PUSH2 0xA44 JUMP JUMPDEST PUSH1 0x0 DUP1 PUSH2 0x9F1 DUP5 PUSH2 0xB22 JUMP JUMPDEST SWAP1 SWAP3 POP SWAP1 POP PUSH2 0xA04 PUSH1 0xFF DUP3 AND PUSH1 0xA PUSH2 0x106C JUMP JUMPDEST PUSH1 0x1 PUSH1 0x1 PUSH1 0xA0 SHL SUB DUP1 DUP7 AND PUSH1 0x0 SWAP1 DUP2 MSTORE PUSH1 0xA PUSH1 0x20 SWAP1 DUP2 MSTORE PUSH1 0x40 DUP1 DUP4 KECCAK256 SWAP4 DUP11 AND DUP4 MSTORE SWAP3 SWAP1 MSTORE KECCAK256 SLOAD PUSH2 0xA35 SWAP1 DUP5 SWAP1 PUSH2 0x1078 JUMP JUMPDEST PUSH2 0xA3F SWAP2 SWAP1 PUSH2 0x108F JUMP JUMPDEST SWAP3 POP POP POP JUMPDEST SWAP3 SWAP2 POP POP JUMP JUMPDEST PUSH1 0x1 PUSH1 0x1 PUSH1 0xA0 SHL SUB DUP2 AND PUSH1 0x0 SWAP1 DUP2 MSTORE PUSH1 0xB PUSH1 0x20 MSTORE PUSH1 0x40 DUP2 KECCAK256 SLOAD DUP2 SWAP1 ISZERO PUSH2 0xA44 JUMPI PUSH1 0x0 JUMPDEST PUSH1 0xD SLOAD DUP2 LT ISZERO PUSH2 0xABC JUMPI PUSH2 0xAA8 DUP5 PUSH1 0xD DUP4 DUP2 SLOAD DUP2 LT PUSH2 0xA8E JUMPI PUSH2 0xA8E PUSH2 0xF59 JUMP JUMPDEST PUSH1 0x0 SWAP2 DUP3 MSTORE PUSH1 0x20 SWAP1 SWAP2 KECCAK256 ADD SLOAD PUSH1 0x1 PUSH1 0x1 PUSH1 0xA0 SHL SUB AND PUSH2 0x9C0 JUMP JUMPDEST PUSH2 0xAB2 SWAP1 DUP4 PUSH2 0xEFE JUMP JUMPDEST SWAP2 POP PUSH1 0x1 ADD PUSH2 0xA6D JUMP JUMPDEST POP SWAP3 SWAP2 POP POP JUMP JUMPDEST PUSH1 0x0 DUP1 JUMPDEST PUSH1 0xD SLOAD DUP2 LT ISZERO PUSH2 0xB19 JUMPI DUP3 PUSH1 0x1 PUSH1 0x1 PUSH1 0xA0 SHL SUB AND PUSH1 0xD DUP3 DUP2 SLOAD DUP2 LT PUSH2 0xAEE JUMPI PUSH2 0xAEE PUSH2 0xF59 JUMP JUMPDEST PUSH1 0x0 SWAP2 DUP3 MSTORE PUSH1 0x20 SWAP1 SWAP2 KECCAK256 ADD SLOAD PUSH1 0x1 PUSH1 0x1 PUSH1 0xA0 SHL SUB AND SUB PUSH2 0xB11 JUMPI POP PUSH1 0x1 SWAP3 SWAP2 POP POP JUMP JUMPDEST PUSH1 0x1 ADD PUSH2 0xAC7 JUMP JUMPDEST POP PUSH1 0x0 SWAP3 SWAP2 POP POP JUMP JUMPDEST PUSH1 0x1 PUSH1 0x1 PUSH1 0xA0 SHL SUB DUP1 DUP3 AND PUSH1 0x0 SWAP1 DUP2 MSTORE PUSH1 0xC PUSH1 0x20 MSTORE PUSH1 0x40 DUP1 DUP3 KECCAK256 SLOAD DUP2 MLOAD PUSH4 0x3FABE5A3 PUSH1 0xE2 SHL DUP2 MSTORE SWAP2 MLOAD SWAP3 SWAP4 DUP5 SWAP4 SWAP2 AND SWAP2 DUP3 SWAP2 DUP5 SWAP2 DUP3 SWAP2 DUP3 SWAP2 DUP3 SWAP2 DUP3 SWAP2 DUP8 SWAP2 PUSH4 0xFEAF968C SWAP2 PUSH1 0x4 DUP1 DUP3 ADD SWAP3 PUSH1 0xA0 SWAP3 SWAP1 SWAP2 SWAP1 DUP3 SWAP1 SUB ADD DUP2 DUP7 GAS STATICCALL ISZERO DUP1 ISZERO PUSH2 0xB8B JUMPI RETURNDATASIZE PUSH1 0x0 DUP1 RETURNDATACOPY RETURNDATASIZE PUSH1 0x0 REVERT JUMPDEST POP POP POP POP PUSH1 0x40 MLOAD RETURNDATASIZE PUSH1 0x1F NOT PUSH1 0x1F DUP3 ADD AND DUP3 ADD DUP1 PUSH1 0x40 MSTORE POP DUP2 ADD SWAP1 PUSH2 0xBAF SWAP2 SWAP1 PUSH2 0x10CB JUMP JUMPDEST SWAP5 POP SWAP5 POP SWAP5 POP SWAP5 POP SWAP5 POP DUP4 DUP7 PUSH1 0x1 PUSH1 0x1 PUSH1 0xA0 SHL SUB AND PUSH4 0x313CE567 PUSH1 0x40 MLOAD DUP2 PUSH4 0xFFFFFFFF AND PUSH1 0xE0 SHL DUP2 MSTORE PUSH1 0x4 ADD PUSH1 0x20 PUSH1 0x40 MLOAD DUP1 DUP4 SUB DUP2 DUP7 GAS STATICCALL ISZERO DUP1 ISZERO PUSH2 0xBF8 JUMPI RETURNDATASIZE PUSH1 0x0 DUP1 RETURNDATACOPY RETURNDATASIZE PUSH1 0x0 REVERT JUMPDEST POP POP POP POP PUSH1 0x40 MLOAD RETURNDATASIZE PUSH1 0x1F NOT PUSH1 0x1F DUP3 ADD AND DUP3 ADD DUP1 PUSH1 0x40 MSTORE POP DUP2 ADD SWAP1 PUSH2 0xC1C SWAP2 SWAP1 PUSH2 0x111D JUMP JUMPDEST SWAP9 POP SWAP9 POP POP POP POP POP POP POP POP SWAP2 POP SWAP2 JUMP JUMPDEST PUSH1 0x6 SLOAD PUSH1 0x1 PUSH1 0x1 PUSH1 0xA0 SHL SUB AND CALLER EQ PUSH2 0xC56 JUMPI PUSH1 0x40 MLOAD PUSH3 0x461BCD PUSH1 0xE5 SHL DUP2 MSTORE PUSH1 0x4 ADD PUSH2 0x3DB SWAP1 PUSH2 0xF11 JUMP JUMPDEST PUSH1 0x1 PUSH1 0x1 PUSH1 0xA0 SHL SUB DUP2 AND PUSH2 0xCBB JUMPI PUSH1 0x40 MLOAD PUSH3 0x461BCD PUSH1 0xE5 SHL DUP2 MSTORE PUSH1 0x20 PUSH1 0x4 DUP3 ADD MSTORE PUSH1 0x26 PUSH1 0x24 DUP3 ADD MSTORE PUSH32 0x4F776E61626C653A206E6577206F776E657220697320746865207A65726F2061 PUSH1 0x44 DUP3 ADD MSTORE PUSH6 0x646472657373 PUSH1 0xD0 SHL PUSH1 0x64 DUP3 ADD MSTORE PUSH1 0x84 ADD PUSH2 0x3DB JUMP JUMPDEST PUSH2 0x92F DUP2 PUSH2 0xD3F JUMP JUMPDEST PUSH1 0x9 DUP2 DUP2 SLOAD DUP2 LT PUSH2 0x824 JUMPI PUSH1 0x0 DUP1 REVERT JUMPDEST PUSH1 0x1 PUSH1 0x1 PUSH1 0xA0 SHL SUB DUP1 DUP3 AND PUSH1 0x0 SWAP1 DUP2 MSTORE PUSH1 0xA PUSH1 0x20 SWAP1 DUP2 MSTORE PUSH1 0x40 DUP1 DUP4 KECCAK256 SWAP4 DUP7 AND DUP4 MSTORE SWAP3 SWAP1 MSTORE KECCAK256 SLOAD PUSH2 0x561 JUMPI PUSH1 0x1 PUSH1 0x1 PUSH1 0xA0 SHL SUB DUP3 AND PUSH1 0x0 SWAP1 DUP2 MSTORE PUSH1 0xB PUSH1 0x20 MSTORE PUSH1 0x40 SWAP1 KECCAK256 SLOAD PUSH2 0xD22 SWAP1 PUSH1 0x1 PUSH2 0xEFE JUMP JUMPDEST PUSH1 0x1 PUSH1 0x1 PUSH1 0xA0 SHL SUB DUP4 AND PUSH1 0x0 SWAP1 DUP2 MSTORE PUSH1 0xB PUSH1 0x20 MSTORE PUSH1 0x40 SWAP1 KECCAK256 SSTORE POP POP JUMP JUMPDEST PUSH1 0x6 DUP1 SLOAD PUSH1 0x1 PUSH1 0x1 PUSH1 0xA0 SHL SUB DUP4 DUP2 AND PUSH1 0x1 PUSH1 0x1 PUSH1 0xA0 SHL SUB NOT DUP4 AND DUP2 OR SWAP1 SWAP4 SSTORE PUSH1 0x40 MLOAD SWAP2 AND SWAP2 SWAP1 DUP3 SWAP1 PUSH32 0x8BE0079C531659141344CD1FD0A4F28419497F9722A3DAAFE3B4186F6B6457E0 SWAP1 PUSH1 0x0 SWAP1 LOG3 POP POP JUMP JUMPDEST PUSH1 0x20 DUP2 MSTORE PUSH1 0x0 DUP3 MLOAD DUP1 PUSH1 0x20 DUP5 ADD MSTORE PUSH1 0x0 JUMPDEST DUP2 DUP2 LT ISZERO PUSH2 0xDBF JUMPI PUSH1 0x20 DUP2 DUP7 ADD DUP2 ADD MLOAD PUSH1 0x40 DUP7 DUP5 ADD ADD MSTORE ADD PUSH2 0xDA2 JUMP JUMPDEST POP PUSH1 0x0 PUSH1 0x40 DUP3 DUP6 ADD ADD MSTORE PUSH1 0x40 PUSH1 0x1F NOT PUSH1 0x1F DUP4 ADD AND DUP5 ADD ADD SWAP2 POP POP SWAP3 SWAP2 POP POP JUMP JUMPDEST DUP1 CALLDATALOAD PUSH1 0x1 PUSH1 0x1 PUSH1 0xA0 SHL SUB DUP2 AND DUP2 EQ PUSH2 0xDF6 JUMPI PUSH1 0x0 DUP1 REVERT JUMPDEST SWAP2 SWAP1 POP JUMP JUMPDEST PUSH1 0x0 DUP1 PUSH1 0x40 DUP4 DUP6 SUB SLT ISZERO PUSH2 0xE0E JUMPI PUSH1 0x0 DUP1 REVERT JUMPDEST DUP3 CALLDATALOAD SWAP2 POP PUSH2 0xE1E PUSH1 0x20 DUP5 ADD PUSH2 0xDDF JUMP JUMPDEST SWAP1 POP SWAP3 POP SWAP3 SWAP1 POP JUMP JUMPDEST PUSH1 0x0 PUSH1 0x20 DUP3 DUP5 SUB SLT ISZERO PUSH2 0xE39 JUMPI PUSH1 0x0 DUP1 REVERT JUMPDEST PUSH2 0xE42 DUP3 PUSH2 0xDDF JUMP JUMPDEST SWAP4 SWAP3 POP POP POP JUMP JUMPDEST PUSH1 0x0 DUP1 PUSH1 0x40 DUP4 DUP6 SUB SLT ISZERO PUSH2 0xE5C JUMPI PUSH1 0x0 DUP1 REVERT JUMPDEST PUSH2 0xE65 DUP4 PUSH2 0xDDF JUMP JUMPDEST SWAP2 POP PUSH2 0xE1E PUSH1 0x20 DUP5 ADD PUSH2 0xDDF JUMP JUMPDEST PUSH1 0x0 PUSH1 0x20 DUP3 DUP5 SUB SLT ISZERO PUSH2 0xE85 JUMPI PUSH1 0x0 DUP1 REVERT JUMPDEST POP CALLDATALOAD SWAP2 SWAP1 POP JUMP JUMPDEST PUSH1 0x1 DUP2 DUP2 SHR SWAP1 DUP3 AND DUP1 PUSH2 0xEA0 JUMPI PUSH1 0x7F DUP3 AND SWAP2 POP JUMPDEST PUSH1 0x20 DUP3 LT DUP2 SUB PUSH2 0xEC0 JUMPI PUSH4 0x4E487B71 PUSH1 0xE0 SHL PUSH1 0x0 MSTORE PUSH1 0x22 PUSH1 0x4 MSTORE PUSH1 0x24 PUSH1 0x0 REVERT JUMPDEST POP SWAP2 SWAP1 POP JUMP JUMPDEST PUSH1 0x0 PUSH1 0x20 DUP3 DUP5 SUB SLT ISZERO PUSH2 0xED8 JUMPI PUSH1 0x0 DUP1 REVERT JUMPDEST DUP2 MLOAD DUP1 ISZERO ISZERO DUP2 EQ PUSH2 0xE42 JUMPI PUSH1 0x0 DUP1 REVERT JUMPDEST PUSH4 0x4E487B71 PUSH1 0xE0 SHL PUSH1 0x0 MSTORE PUSH1 0x11 PUSH1 0x4 MSTORE PUSH1 0x24 PUSH1 0x0 REVERT JUMPDEST DUP1 DUP3 ADD DUP1 DUP3 GT ISZERO PUSH2 0xA44 JUMPI PUSH2 0xA44 PUSH2 0xEE8 JUMP JUMPDEST PUSH1 0x20 DUP1 DUP3 MSTORE DUP2 DUP2 ADD MSTORE PUSH32 0x4F776E61626C653A2063616C6C6572206973206E6F7420746865206F776E6572 PUSH1 0x40 DUP3 ADD MSTORE PUSH1 0x60 ADD SWAP1 JUMP JUMPDEST DUP2 DUP2 SUB DUP2 DUP2 GT ISZERO PUSH2 0xA44 JUMPI PUSH2 0xA44 PUSH2 0xEE8 JUMP JUMPDEST PUSH4 0x4E487B71 PUSH1 0xE0 SHL PUSH1 0x0 MSTORE PUSH1 0x32 PUSH1 0x4 MSTORE PUSH1 0x24 PUSH1 0x0 REVERT JUMPDEST PUSH4 0x4E487B71 PUSH1 0xE0 SHL PUSH1 0x0 MSTORE PUSH1 0x31 PUSH1 0x4 MSTORE PUSH1 0x24 PUSH1 0x0 REVERT JUMPDEST PUSH1 0x1 DUP2 JUMPDEST PUSH1 0x1 DUP5 GT ISZERO PUSH2 0xFC0 JUMPI DUP1 DUP6 DIV DUP2 GT ISZERO PUSH2 0xFA4 JUMPI PUSH2 0xFA4 PUSH2 0xEE8 JUMP JUMPDEST PUSH1 0x1 DUP5 AND ISZERO PUSH2 0xFB2 JUMPI SWAP1 DUP2 MUL SWAP1 JUMPDEST PUSH1 0x1 SWAP4 SWAP1 SWAP4 SHR SWAP3 DUP1 MUL PUSH2 0xF89 JUMP JUMPDEST SWAP4 POP SWAP4 SWAP2 POP POP JUMP JUMPDEST PUSH1 0x0 DUP3 PUSH2 0xFD7 JUMPI POP PUSH1 0x1 PUSH2 0xA44 JUMP JUMPDEST DUP2 PUSH2 0xFE4 JUMPI POP PUSH1 0x0 PUSH2 0xA44 JUMP JUMPDEST DUP2 PUSH1 0x1 DUP2 EQ PUSH2 0xFFA JUMPI PUSH1 0x2 DUP2 EQ PUSH2 0x1004 JUMPI PUSH2 0x1020 JUMP JUMPDEST PUSH1 0x1 SWAP2 POP POP PUSH2 0xA44 JUMP JUMPDEST PUSH1 0xFF DUP5 GT ISZERO PUSH2 0x1015 JUMPI PUSH2 0x1015 PUSH2 0xEE8 JUMP JUMPDEST POP POP PUSH1 0x1 DUP3 SHL PUSH2 0xA44 JUMP JUMPDEST POP PUSH1 0x20 DUP4 LT PUSH2 0x133 DUP4 LT AND PUSH1 0x4E DUP5 LT PUSH1 0xB DUP5 LT AND OR ISZERO PUSH2 0x1043 JUMPI POP DUP2 DUP2 EXP PUSH2 0xA44 JUMP JUMPDEST PUSH2 0x1050 PUSH1 0x0 NOT DUP5 DUP5 PUSH2 0xF85 JUMP JUMPDEST DUP1 PUSH1 0x0 NOT DIV DUP3 GT ISZERO PUSH2 0x1064 JUMPI PUSH2 0x1064 PUSH2 0xEE8 JUMP JUMPDEST MUL SWAP4 SWAP3 POP POP POP JUMP JUMPDEST PUSH1 0x0 PUSH2 0xE42 DUP4 DUP4 PUSH2 0xFC8 JUMP JUMPDEST DUP1 DUP3 MUL DUP2 ISZERO DUP3 DUP3 DIV DUP5 EQ OR PUSH2 0xA44 JUMPI PUSH2 0xA44 PUSH2 0xEE8 JUMP JUMPDEST PUSH1 0x0 DUP3 PUSH2 0x10AC JUMPI PUSH4 0x4E487B71 PUSH1 0xE0 SHL PUSH1 0x0 MSTORE PUSH1 0x12 PUSH1 0x4 MSTORE PUSH1 0x24 PUSH1 0x0 REVERT JUMPDEST POP DIV SWAP1 JUMP JUMPDEST DUP1 MLOAD PUSH10 0xFFFFFFFFFFFFFFFFFFFF DUP2 AND DUP2 EQ PUSH2 0xDF6 JUMPI PUSH1 0x0 DUP1 REVERT JUMPDEST PUSH1 0x0 DUP1 PUSH1 0x0 DUP1 PUSH1 0x0 PUSH1 0xA0 DUP7 DUP9 SUB SLT ISZERO PUSH2 0x10E3 JUMPI PUSH1 0x0 DUP1 REVERT JUMPDEST PUSH2 0x10EC DUP7 PUSH2 0x10B1 JUMP JUMPDEST PUSH1 0x20 DUP8 ADD MLOAD PUSH1 0x40 DUP9 ADD MLOAD PUSH1 0x60 DUP10 ADD MLOAD SWAP3 SWAP8 POP SWAP1 SWAP6 POP SWAP4 POP SWAP2 POP PUSH2 0x1111 PUSH1 0x80 DUP8 ADD PUSH2 0x10B1 JUMP JUMPDEST SWAP1 POP SWAP3 SWAP6 POP SWAP3 SWAP6 SWAP1 SWAP4 POP JUMP JUMPDEST PUSH1 0x0 PUSH1 0x20 DUP3 DUP5 SUB SLT ISZERO PUSH2 0x112F JUMPI PUSH1 0x0 DUP1 REVERT JUMPDEST DUP2 MLOAD PUSH1 0xFF DUP2 AND DUP2 EQ PUSH2 0xE42 JUMPI PUSH1 0x0 DUP1 REVERT INVALID LOG2 PUSH5 0x6970667358 0x22 SLT KECCAK256 JUMP DUP8 0xCC EXTCODECOPY RJUMP 0xA9C7 0x1F 0xBE 0xD2 0xBD PUSH9 0xC2A31DDA43885B1DDA SWAP14 TIMESTAMP CLZ CALLDATASIZE PUSH9 0xBED73081ED3564736F PUSH13 0x634300081F0033000000000000 ",
  "sha1": "825152ba01d597e6396edf088be7cf33fc55d7c9",
  "source": "// SPDX-License-Identifier: MIT\npragma solidity ^0.8.7;\n\nimport \"@chainlink/contracts/src/v0.8/interfaces/AggregatorV3Interface.sol\";\nimport \"@chainlink/contracts/src/v0.8/ChainlinkClient.sol\";\nimport \"@openzeppelin/contracts/token/ERC20/IERC20.sol\";\nimport \"@openzeppelin/contracts/access/Ownable.sol\";\n\ncontract TokenFarm is ChainlinkClient, Ownable {\n    string public name = \"Golden Token Farm\";\n    IERC20 public goldenToken;\n\n    address[] public stakers;\n    // token > address\n    mapping(address => mapping(address => uint256)) public stakingBalance;\n    mapping(address => uint256) public uniqueTokensStaked;\n    mapping(address => address) public tokenPriceFeedMapping;\n    address[] public allowedTokens;\n\n    constructor(address _goldenTokenAddress) public {\n        goldenToken = IERC20(_goldenTokenAddress);\n    }\n\n    function addAllowedTokens(address token) public onlyOwner {\n        allowedTokens.push(token);\n    }\n\n    function setPriceFeedContract(address token, address priceFeed)\n        public\n        onlyOwner\n    {\n        tokenPriceFeedMapping[token] = priceFeed;\n    }\n\n    function stakeTokens(uint256 _amount, address token) public {\n     // NOTE:\n     // This is vulnerable to a reentrancy attack!!!\n        // Require amount greater than 0\n        require(_amount > 0, \"amount cannot be 0\");\n        require(tokenIsAllowed(token), \"Token currently isn't allowed\");\n        updateUniqueTokensStaked(msg.sender, token);\n        IERC20(token).transferFrom(msg.sender, address(this), _amount);\n        stakingBalance[token][msg.sender] =\n            stakingBalance[token][msg.sender] +\n            _amount;\n        if (uniqueTokensStaked[msg.sender] == 1) {\n            stakers.push(msg.sender);\n        }\n    }\n\n    // Unstaking Tokens (Withdraw)\n    function unstakeTokens(address token) public {\n     // NOTE:\n     // This is vulnerable to a reentrancy attack!!!\n        // Fetch staking balance\n        uint256 balance = stakingBalance[token][msg.sender];\n        require(balance > 0, \"staking balance cannot be 0\");\n        IERC20(token).transfer(msg.sender, balance);\n        stakingBalance[token][msg.sender] = 0;\n        uniqueTokensStaked[msg.sender] = uniqueTokensStaked[msg.sender] - 1;\n\n        // The code below fixes a problem where stakers could not appear twice\n        // in the stakers array, receiving twice the reward.\n        if (uniqueTokensStaked[msg.sender] == 0) {\n            for (\n                uint256 stakersIndex = 0;\n                stakersIndex < stakers.length;\n                stakersIndex++\n            ) {\n                if (stakers[stakersIndex] == msg.sender) {\n                    stakers[stakersIndex] = stakers[stakers.length - 1];\n                    stakers.pop();\n                }\n            }\n        }\n    }\n\n    function getUserTotalValue(address user) public view returns (uint256) {\n        uint256 totalValue = 0;\n        if (uniqueTokensStaked[user] > 0) {\n            for (\n                uint256 allowedTokensIndex = 0;\n                allowedTokensIndex < allowedTokens.length;\n                allowedTokensIndex++\n            ) {\n                totalValue =\n                    totalValue +\n                    getUserTokenStakingBalanceEthValue(\n                        user,\n                        allowedTokens[allowedTokensIndex]\n                    );\n            }\n        }\n        return totalValue;\n    }\n\n    function tokenIsAllowed(address token) public view returns (bool) {\n        for (\n            uint256 allowedTokensIndex = 0;\n            allowedTokensIndex < allowedTokens.length;\n            allowedTokensIndex++\n        ) {\n            if (allowedTokens[allowedTokensIndex] == token) {\n                return true;\n            }\n        }\n        return false;\n    }\n\n    function updateUniqueTokensStaked(address user, address token) internal {\n        if (stakingBalance[token][user] <= 0) {\n            uniqueTokensStaked[user] = uniqueTokensStaked[user] + 1;\n        }\n    }\n\n    function getUserTokenStakingBalanceEthValue(address user, address token)\n        public\n        view\n        returns (uint256)\n    {\n        if (uniqueTokensStaked[user] <= 0) {\n            return 0;\n        }\n        (uint256 price, uint8 decimals) = getTokenEthPrice(token);\n        return\n            (stakingBalance[token][user] * price) / (10**uint256(decimals));\n    }\n\n    // Issuing Tokens\n    function issueTokens() public onlyOwner {\n        // Issue tokens to all stakers\n        for (\n            uint256 stakersIndex = 0;\n            stakersIndex < stakers.length;\n            stakersIndex++\n        ) {\n            address recipient = stakers[stakersIndex];\n            goldenToken.transfer(recipient, getUserTotalValue(recipient));\n        }\n    }\n\n    function getTokenEthPrice(address token) public view returns (uint256, uint8) {\n        address priceFeedAddress = tokenPriceFeedMapping[token];\n        AggregatorV3Interface priceFeed = AggregatorV3Interface(\n            priceFeedAddress\n        );\n        (\n            uint80 roundID,\n            int256 price,\n            uint256 startedAt,\n            uint256 timeStamp,\n            uint80 answeredInRound\n        ) = priceFeed.latestRoundData();\n        return (uint256(price), priceFeed.decimals());\n    }\n}\n\n",
  "sourcePath": "contracts/TokenFarm.sol",
  "type": "contract"
}